Component: ARM Compiler 5.06 update 7 (build 960) Tool: armlink [4d3601]

==============================================================================

Section Cross References

    startup_stm32f103x6.o(RESET) refers to startup_stm32f103x6.o(STACK) for __initial_sp
    startup_stm32f103x6.o(RESET) refers to startup_stm32f103x6.o(.text) for Reset_Handler
    startup_stm32f103x6.o(RESET) refers to stm32f1xx_it.o(i.NMI_Handler) for NMI_Handler
    startup_stm32f103x6.o(RESET) refers to stm32f1xx_it.o(i.HardFault_Handler) for HardFault_Handler
    startup_stm32f103x6.o(RESET) refers to stm32f1xx_it.o(i.MemManage_Handler) for MemManage_Handler
    startup_stm32f103x6.o(RESET) refers to stm32f1xx_it.o(i.BusFault_Handler) for BusFault_Handler
    startup_stm32f103x6.o(RESET) refers to stm32f1xx_it.o(i.UsageFault_Handler) for UsageFault_Handler
    startup_stm32f103x6.o(RESET) refers to stm32f1xx_it.o(i.SVC_Handler) for SVC_Handler
    startup_stm32f103x6.o(RESET) refers to stm32f1xx_it.o(i.DebugMon_Handler) for DebugMon_Handler
    startup_stm32f103x6.o(RESET) refers to stm32f1xx_it.o(i.PendSV_Handler) for PendSV_Handler
    startup_stm32f103x6.o(RESET) refers to stm32f1xx_it.o(i.SysTick_Handler) for SysTick_Handler
    startup_stm32f103x6.o(RESET) refers to stm32f1xx_it.o(i.TIM2_IRQHandler) for TIM2_IRQHandler
    startup_stm32f103x6.o(RESET) refers to stm32f1xx_it.o(i.TIM3_IRQHandler) for TIM3_IRQHandler
    startup_stm32f103x6.o(RESET) refers to stm32f1xx_it.o(i.USART2_IRQHandler) for USART2_IRQHandler
    startup_stm32f103x6.o(RESET) refers to stm32f1xx_it.o(i.EXTI15_10_IRQHandler) for EXTI15_10_IRQHandler
    startup_stm32f103x6.o(.text) refers to system_stm32f1xx.o(i.SystemInit) for SystemInit
    startup_stm32f103x6.o(.text) refers to entry.o(.ARM.Collect$$$$00000000) for __main
    main.o(i.HAL_TIM_PeriodElapsedCallback) refers to tim.o(.bss) for htim2
==============================================================================

Removing Unused input sections from the image.

    Removing startup_stm32f103x6.o(HEAP), (512 bytes).
    Removing main.o(.rev16_text), (4 bytes).
    Removing main.o(.revsh_text), (4 bytes).
    Removing main.o(.rrx_text), (6 bytes).
    Removing main.o(.data), (1 bytes).
    Removing gpio.o(.rev16_text), (4 bytes).
    Removing gpio.o(.revsh_text), (4 bytes).
    Removing gpio.o(.rrx_text), (6 bytes).
    Removing adc.o(.rev16_text), (4 bytes).
    Removing adc.o(.revsh_text), (4 bytes).
    Removing adc.o(.rrx_text), (6 bytes).
    Removing adc.o(i.HAL_ADC_MspDeInit), (60 bytes).
    Removing iwdg.o(.rev16_text), (4 bytes).
    Removing iwdg.o(.revsh_text), (4 bytes).
    Removing iwdg.o(.rrx_text), (6 bytes).
    Removing tim.o(.rev16_text), (4 bytes).
    Removing tim.o(.revsh_text), (4 bytes).
    Removing tim.o(.rrx_text), (6 bytes).
==============================================================================

Image Symbol Table

    Local Symbols

    Symbol Name                              Value     Ov Type        Size  Object(Section)

    ../Core/Src/adc.c                        0x00000000   Number         0  adc.o ABSOLUTE
    ../Core/Src/gpio.c                       0x00000000   Number         0  gpio.o ABSOLUTE
    ../Core/Src/iwdg.c                       0x00000000   Number         0  iwdg.o ABSOLUTE
    ../Core/Src/main.c                       0x00000000   Number         0  main.o ABSOLUTE
    ../Core/Src/stm32f1xx_hal_msp.c          0x00000000   Number         0  stm32f1xx_hal_msp.o ABSOLUTE
    ../Core/Src/stm32f1xx_it.c               0x00000000   Number         0  stm32f1xx_it.o ABSOLUTE
    ../Core/Src/system_stm32f1xx.c           0x00000000   Number         0  system_stm32f1xx.o ABSOLUTE
    ../Core/Src/tim.c                        0x00000000   Number         0  tim.o ABSOLUTE
    ../Core/Src/usart.c                      0x00000000   Number         0  usart.o ABSOLUTE
    ../Drivers/STM32F1xx_HAL_Driver/Src/stm32f1xx_hal.c 0x00000000   Number         0  stm32f1xx_hal.o ABSOLUTE
    ../Drivers/STM32F1xx_HAL_Driver/Src/stm32f1xx_hal_adc.c 0x00000000   Number         0  stm32f1xx_hal_adc.o ABSOLUTE
    ../Drivers/STM32F1xx_HAL_Driver/Src/stm32f1xx_hal_adc_ex.c 0x00000000   Number         0  stm32f1xx_hal_adc_ex.o ABSOLUTE
    ../Drivers/STM32F1xx_HAL_Driver/Src/stm32f1xx_hal_cortex.c 0x00000000   Number         0  stm32f1xx_hal_cortex.o ABSOLUTE
    ../Drivers/STM32F1xx_HAL_Driver/Src/stm32f1xx_hal_dma.c 0x00000000   Number         0  stm32f1xx_hal_dma.o ABSOLUTE
    ../Drivers/STM32F1xx_HAL_Driver/Src/stm32f1xx_hal_exti.c 0x00000000   Number         0  stm32f1xx_hal_exti.o ABSOLUTE
    ../Drivers/STM32F1xx_HAL_Driver/Src/stm32f1xx_hal_flash.c 0x00000000   Number         0  stm32f1xx_hal_flash.o ABSOLUTE
    ../Drivers/STM32F1xx_HAL_Driver/Src/stm32f1xx_hal_flash_ex.c 0x00000000   Number         0  stm32f1xx_hal_flash_ex.o ABSOLUTE
    ../Drivers/STM32F1xx_HAL_Driver/Src/stm32f1xx_hal_gpio.c 0x00000000   Number         0  stm32f1xx_hal_gpio.o ABSOLUTE
    ../Drivers/STM32F1xx_HAL_Driver/Src/stm32f1xx_hal_gpio_ex.c 0x00000000   Number         0  stm32f1xx_hal_gpio_ex.o ABSOLUTE
    ../Drivers/STM32F1xx_HAL_Driver/Src/stm32f1xx_hal_iwdg.c 0x00000000   Number         0  stm32f1xx_hal_iwdg.o ABSOLUTE
    ../Drivers/STM32F1xx_HAL_Driver/Src/stm32f1xx_hal_pwr.c 0x00000000   Number         0  stm32f1xx_hal_pwr.o ABSOLUTE
    ../Drivers/STM32F1xx_HAL_Driver/Src/stm32f1xx_hal_rcc.c 0x00000000   Number         0  stm32f1xx_hal_rcc.o ABSOLUTE
    ../Drivers/STM32F1xx_HAL_Driver/Src/stm32f1xx_hal_rcc_ex.c 0x00000000   Number         0  stm32f1xx_hal_rcc_ex.o ABSOLUTE
    ../Drivers/STM32F1xx_HAL_Driver/Src/stm32f1xx_hal_tim.c 0x00000000   Number         0  stm32f1xx_hal_tim.o ABSOLUTE
    ../Drivers/STM32F1xx_HAL_Driver/Src/stm32f1xx_hal_tim_ex.c 0x00000000   Number         0  stm32f1xx_hal_tim_ex.o ABSOLUTE
    ../Drivers/STM32F1xx_HAL_Driver/Src/stm32f1xx_hal_uart.c 0x00000000   Number         0  stm32f1xx_hal_uart.o ABSOLUTE
    ../clib/../cmprslib/zerorunl2.c          0x00000000   Number         0  __dczerorl2.o ABSOLUTE
    ../clib/microlib/division.c              0x00000000   Number         0  uldiv.o ABSOLUTE
    ../clib/microlib/division.c              0x00000000   Number         0  uidiv.o ABSOLUTE
    ../clib/microlib/init/entry.s            0x00000000   Number         0  entry10a.o ABSOLUTE
    ../clib/microlib/init/entry.s            0x00000000   Number         0  entry.o ABSOLUTE
    ../clib/microlib/init/entry.s            0x00000000   Number         0  entry9a.o ABSOLUTE
    ../clib/microlib/init/entry.s            0x00000000   Number         0  entry9b.o ABSOLUTE
    ../clib/microlib/init/entry.s            0x00000000   Number         0  entry10b.o ABSOLUTE
    ../clib/microlib/init/entry.s            0x00000000   Number         0  entry11a.o ABSOLUTE
    ../clib/microlib/init/entry.s            0x00000000   Number         0  entry11b.o ABSOLUTE
    ../clib/microlib/init/entry.s            0x00000000   Number         0  entry12a.o ABSOLUTE
    ../clib/microlib/init/entry.s            0x00000000   Number         0  entry8b.o ABSOLUTE
    ../clib/microlib/init/entry.s            0x00000000   Number         0  entry12b.o ABSOLUTE
    ../clib/microlib/init/entry.s            0x00000000   Number         0  entry7b.o ABSOLUTE
    ../clib/microlib/init/entry.s            0x00000000   Number         0  entry8a.o ABSOLUTE
    ../clib/microlib/init/entry.s            0x00000000   Number         0  entry7a.o ABSOLUTE
    ../clib/microlib/init/entry.s            0x00000000   Number         0  entry5.o ABSOLUTE
    ../clib/microlib/init/entry.s            0x00000000   Number         0  entry2.o ABSOLUTE
    ../clib/microlib/longlong.c              0x00000000   Number         0  llushr.o ABSOLUTE
    ../clib/microlib/longlong.c              0x00000000   Number         0  llshl.o ABSOLUTE
    ../clib/microlib/longlong.c              0x00000000   Number         0  llsshr.o ABSOLUTE
    ../clib/microlib/printf/printf.c         0x00000000   Number         0  printfb.o ABSOLUTE
    ../clib/microlib/printf/printf.c         0x00000000   Number         0  printf0.o ABSOLUTE
    ../clib/microlib/printf/printf.c         0x00000000   Number         0  printf1.o ABSOLUTE
    ../clib/microlib/printf/printf.c         0x00000000   Number         0  printf2.o ABSOLUTE
    ../clib/microlib/printf/printf.c         0x00000000   Number         0  printf3.o ABSOLUTE
    ../clib/microlib/printf/printf.c         0x00000000   Number         0  printfa.o ABSOLUTE
    ../clib/microlib/printf/printf.c         0x00000000   Number         0  printf8.o ABSOLUTE
    ../clib/microlib/printf/printf.c         0x00000000   Number         0  printf7.o ABSOLUTE
    ../clib/microlib/printf/printf.c         0x00000000   Number         0  printf6.o ABSOLUTE
    ../clib/microlib/printf/printf.c         0x00000000   Number         0  printf5.o ABSOLUTE
    ../clib/microlib/printf/printf.c         0x00000000   Number         0  printf4.o ABSOLUTE
    ../clib/microlib/stdio/streams.c         0x00000000   Number         0  stdout.o ABSOLUTE
    ../clib/microlib/string/memset.c         0x00000000   Number         0  memseta.o ABSOLUTE
    ../clib/microlib/stubs.s                 0x00000000   Number         0  iusefp.o ABSOLUTE
    ../fplib/microlib/fpadd.c                0x00000000   Number         0  dadd.o ABSOLUTE
    ../fplib/microlib/fpdiv.c                0x00000000   Number         0  ddiv.o ABSOLUTE
    ../fplib/microlib/fpepilogue.c           0x00000000   Number         0  depilogue.o ABSOLUTE
    ../fplib/microlib/fpfix.c                0x00000000   Number         0  dfixul.o ABSOLUTE
    ../fplib/microlib/fpmul.c                0x00000000   Number         0  dmul.o ABSOLUTE
    ..\Core\BLDC\hall.c                      0x00000000   Number         0  hall.o ABSOLUTE
    ..\Core\BLDC\motor.c                     0x00000000   Number         0  motor.o ABSOLUTE
    ..\Core\MY\Get_ADC_Value.c               0x00000000   Number         0  get_adc_value.o ABSOLUTE
    ..\Core\MY\IIC.c                         0x00000000   Number         0  iic.o ABSOLUTE
    ..\Core\MY\IIC_OLED.c                    0x00000000   Number         0  iic_oled.o ABSOLUTE
    ..\Core\MY\User_Function.c               0x00000000   Number         0  user_function.o ABSOLUTE
    ..\Core\MY\User_Scheduler.c              0x00000000   Number         0  user_scheduler.o ABSOLUTE
    ..\Core\MY\key.c                         0x00000000   Number         0  key.o ABSOLUTE
    ..\Core\MY\menu.c                        0x00000000   Number         0  menu.o ABSOLUTE
    ..\Core\Src\adc.c                        0x00000000   Number         0  adc.o ABSOLUTE
    ..\Core\Src\gpio.c                       0x00000000   Number         0  gpio.o ABSOLUTE
    ..\Core\Src\iwdg.c                       0x00000000   Number         0  iwdg.o ABSOLUTE
    ..\Core\Src\main.c                       0x00000000   Number         0  main.o ABSOLUTE
    ..\Core\Src\stm32f1xx_hal_msp.c          0x00000000   Number         0  stm32f1xx_hal_msp.o ABSOLUTE
    ..\Core\Src\stm32f1xx_it.c               0x00000000   Number         0  stm32f1xx_it.o ABSOLUTE
    ..\Core\Src\system_stm32f1xx.c           0x00000000   Number         0  system_stm32f1xx.o ABSOLUTE
    ..\Core\Src\tim.c                        0x00000000   Number         0  tim.o ABSOLUTE
    ..\Core\Src\usart.c                      0x00000000   Number         0  usart.o ABSOLUTE
    ..\Drivers\STM32F1xx_HAL_Driver\Src\stm32f1xx_hal.c 0x00000000   Number         0  stm32f1xx_hal.o ABSOLUTE
    ..\Drivers\STM32F1xx_HAL_Driver\Src\stm32f1xx_hal_adc.c 0x00000000   Number         0  stm32f1xx_hal_adc.o ABSOLUTE
    ..\Drivers\STM32F1xx_HAL_Driver\Src\stm32f1xx_hal_adc_ex.c 0x00000000   Number         0  stm32f1xx_hal_adc_ex.o ABSOLUTE
    ..\Drivers\STM32F1xx_HAL_Driver\Src\stm32f1xx_hal_cortex.c 0x00000000   Number         0  stm32f1xx_hal_cortex.o ABSOLUTE
    ..\Drivers\STM32F1xx_HAL_Driver\Src\stm32f1xx_hal_dma.c 0x00000000   Number         0  stm32f1xx_hal_dma.o ABSOLUTE
    ..\Drivers\STM32F1xx_HAL_Driver\Src\stm32f1xx_hal_exti.c 0x00000000   Number         0  stm32f1xx_hal_exti.o ABSOLUTE
    ..\Drivers\STM32F1xx_HAL_Driver\Src\stm32f1xx_hal_flash.c 0x00000000   Number         0  stm32f1xx_hal_flash.o ABSOLUTE
    ..\Drivers\STM32F1xx_HAL_Driver\Src\stm32f1xx_hal_flash_ex.c 0x00000000   Number         0  stm32f1xx_hal_flash_ex.o ABSOLUTE
    ..\Drivers\STM32F1xx_HAL_Driver\Src\stm32f1xx_hal_gpio.c 0x00000000   Number         0  stm32f1xx_hal_gpio.o ABSOLUTE
    ..\Drivers\STM32F1xx_HAL_Driver\Src\stm32f1xx_hal_gpio_ex.c 0x00000000   Number         0  stm32f1xx_hal_gpio_ex.o ABSOLUTE
    ..\Drivers\STM32F1xx_HAL_Driver\Src\stm32f1xx_hal_iwdg.c 0x00000000   Number         0  stm32f1xx_hal_iwdg.o ABSOLUTE
    ..\Drivers\STM32F1xx_HAL_Driver\Src\stm32f1xx_hal_pwr.c 0x00000000   Number         0  stm32f1xx_hal_pwr.o ABSOLUTE
    ..\Drivers\STM32F1xx_HAL_Driver\Src\stm32f1xx_hal_rcc.c 0x00000000   Number         0  stm32f1xx_hal_rcc.o ABSOLUTE
    ..\Drivers\STM32F1xx_HAL_Driver\Src\stm32f1xx_hal_rcc_ex.c 0x00000000   Number         0  stm32f1xx_hal_rcc_ex.o ABSOLUTE
    ..\Drivers\STM32F1xx_HAL_Driver\Src\stm32f1xx_hal_tim.c 0x00000000   Number         0  stm32f1xx_hal_tim.o ABSOLUTE
    ..\Drivers\STM32F1xx_HAL_Driver\Src\stm32f1xx_hal_tim_ex.c 0x00000000   Number         0  stm32f1xx_hal_tim_ex.o ABSOLUTE
    ..\Drivers\STM32F1xx_HAL_Driver\Src\stm32f1xx_hal_uart.c 0x00000000   Number         0  stm32f1xx_hal_uart.o ABSOLUTE
    ..\\Core\\BLDC\\hall.c                   0x00000000   Number         0  hall.o ABSOLUTE
    ..\\Core\\BLDC\\motor.c                  0x00000000   Number         0  motor.o ABSOLUTE
    ..\\Core\\MY\\Get_ADC_Value.c            0x00000000   Number         0  get_adc_value.o ABSOLUTE
    ..\\Core\\MY\\IIC.c                      0x00000000   Number         0  iic.o ABSOLUTE
    ..\\Core\\MY\\IIC_OLED.c                 0x00000000   Number         0  iic_oled.o ABSOLUTE
    ..\\Core\\MY\\User_Function.c            0x00000000   Number         0  user_function.o ABSOLUTE
    ..\\Core\\MY\\User_Scheduler.c           0x00000000   Number         0  user_scheduler.o ABSOLUTE
    ..\\Core\\MY\\key.c                      0x00000000   Number         0  key.o ABSOLUTE
    ..\\Core\\MY\\menu.c                     0x00000000   Number         0  menu.o ABSOLUTE
    cdrcmple.s                               0x00000000   Number         0  cdrcmple.o ABSOLUTE
    dc.s                                     0x00000000   Number         0  dc.o ABSOLUTE
    handlers.s                               0x00000000   Number         0  handlers.o ABSOLUTE
    init.s                                   0x00000000   Number         0  init.o ABSOLUTE
    startup_stm32f103x6.s                    0x00000000   Number         0  startup_stm32f103x6.o ABSOLUTE
    RESET                                    0x08000000   Section      236  startup_stm32f103x6.o(RESET)
    .ARM.Collect$$$$00000000                 0x080000ec   Section        0  entry.o(.ARM.Collect$$$$00000000)
    .ARM.Collect$$$$00000001                 0x080000ec   Section        4  entry2.o(.ARM.Collect$$$$00000001)
    .ARM.Collect$$$$00000004                 0x080000f0   Section        4  entry5.o(.ARM.Collect$$$$00000004)
    .ARM.Collect$$$$00000008                 0x080000f4   Section        0  entry7b.o(.ARM.Collect$$$$00000008)
    .ARM.Collect$$$$0000000A                 0x080000f4   Section        0  entry8b.o(.ARM.Collect$$$$0000000A)
    .ARM.Collect$$$$0000000B                 0x080000f4   Section        8  entry9a.o(.ARM.Collect$$$$0000000B)
    .ARM.Collect$$$$0000000E                 0x080000fc   Section        4  entry12b.o(.ARM.Collect$$$$0000000E)
    .ARM.Collect$$$$0000000F                 0x08000100   Section        0  entry10a.o(.ARM.Collect$$$$0000000F)
    .ARM.Collect$$$$00000011                 0x08000100   Section        0  entry11a.o(.ARM.Collect$$$$00000011)
    .ARM.Collect$$$$00002712                 0x08000100   Section        4  entry2.o(.ARM.Collect$$$$00002712)
    __lit__00000000                          0x08000100   Data           4  entry2.o(.ARM.Collect$$$$00002712)
    .text                                    0x08000104   Section       36  startup_stm32f103x6.o(.text)
    .text                                    0x08000128   Section        0  memseta.o(.text)
    .text                                    0x0800014c   Section       36  init.o(.text)
    .text                                    0x08000170   Section        0  __dczerorl2.o(.text)
    i.ADC_ConversionStop_Disable             0x080001c8   Section        0  stm32f1xx_hal_adc.o(i.ADC_ConversionStop_Disable)
    i.BusFault_Handler                       0x0800021e   Section        0  stm32f1xx_it.o(i.BusFault_Handler)
    i.Change_PWM_Duty                        0x08000220   Section        0  motor.o(i.Change_PWM_Duty)
    i.DebugMon_Handler                       0x08000240   Section        0  stm32f1xx_it.o(i.DebugMon_Handler)
    i.EXTI15_10_IRQHandler                   0x08000242   Section        0  stm32f1xx_it.o(i.EXTI15_10_IRQHandler)
    i.Error_Handler                          0x08000260   Section        0  main.o(i.Error_Handler)
    i.FuncRun                                0x08000264   Section        0  user_scheduler.o(i.FuncRun)
    i.HAL_ADC_ConfigChannel                  0x080002a0   Section        0  stm32f1xx_hal_adc.o(i.HAL_ADC_ConfigChannel)
    i.HAL_ADC_Init                           0x0800039c   Section        0  stm32f1xx_hal_adc.o(i.HAL_ADC_Init)
    i.HAL_ADC_MspInit                        0x080004b8   Section        0  adc.o(i.HAL_ADC_MspInit)
    i.HAL_DMA_Abort                          0x08000530   Section        0  stm32f1xx_hal_dma.o(i.HAL_DMA_Abort)
    i.HAL_DMA_Abort_IT                       0x08000578   Section        0  stm32f1xx_hal_dma.o(i.HAL_DMA_Abort_IT)
    i.HAL_Delay                              0x08000610   Section        0  stm32f1xx_hal.o(i.HAL_Delay)
    i.HAL_GPIO_EXTI_Callback                 0x08000634   Section        0  hall.o(i.HAL_GPIO_EXTI_Callback)
    i.HAL_GPIO_EXTI_IRQHandler               0x0800067c   Section        0  stm32f1xx_hal_gpio.o(i.HAL_GPIO_EXTI_IRQHandler)
    i.HAL_GPIO_Init                          0x08000694   Section        0  stm32f1xx_hal_gpio.o(i.HAL_GPIO_Init)
    i.HAL_GPIO_ReadPin                       0x08000854   Section        0  stm32f1xx_hal_gpio.o(i.HAL_GPIO_ReadPin)
    i.HAL_GPIO_TogglePin                     0x0800085e   Section        0  stm32f1xx_hal_gpio.o(i.HAL_GPIO_TogglePin)
    i.HAL_GPIO_WritePin                      0x0800086e   Section        0  stm32f1xx_hal_gpio.o(i.HAL_GPIO_WritePin)
    i.HAL_GetTick                            0x08000878   Section        0  stm32f1xx_hal.o(i.HAL_GetTick)
    i.HAL_IWDG_Init                          0x08000884   Section        0  stm32f1xx_hal_iwdg.o(i.HAL_IWDG_Init)
    i.HAL_IWDG_Refresh                       0x080008de   Section        0  stm32f1xx_hal_iwdg.o(i.HAL_IWDG_Refresh)
    i.HAL_IncTick                            0x080008ec   Section        0  stm32f1xx_hal.o(i.HAL_IncTick)
    i.HAL_Init                               0x080008fc   Section        0  stm32f1xx_hal.o(i.HAL_Init)
    i.HAL_InitTick                           0x08000920   Section        0  stm32f1xx_hal.o(i.HAL_InitTick)
    i.HAL_MspInit                            0x08000960   Section        0  stm32f1xx_hal_msp.o(i.HAL_MspInit)
    i.HAL_NVIC_EnableIRQ                     0x0800099c   Section        0  stm32f1xx_hal_cortex.o(i.HAL_NVIC_EnableIRQ)
    i.HAL_NVIC_SetPriority                   0x080009b8   Section        0  stm32f1xx_hal_cortex.o(i.HAL_NVIC_SetPriority)
    i.HAL_NVIC_SetPriorityGrouping           0x080009f8   Section        0  stm32f1xx_hal_cortex.o(i.HAL_NVIC_SetPriorityGrouping)
    i.HAL_NVIC_SystemReset                   0x08000a1c   Section        0  stm32f1xx_hal_cortex.o(i.HAL_NVIC_SystemReset)
    i.HAL_RCCEx_PeriphCLKConfig              0x08000a40   Section        0  stm32f1xx_hal_rcc_ex.o(i.HAL_RCCEx_PeriphCLKConfig)
    i.HAL_RCC_ClockConfig                    0x08000b2c   Section        0  stm32f1xx_hal_rcc.o(i.HAL_RCC_ClockConfig)
    i.HAL_RCC_GetPCLK1Freq                   0x08000c58   Section        0  stm32f1xx_hal_rcc.o(i.HAL_RCC_GetPCLK1Freq)
    i.HAL_RCC_GetPCLK2Freq                   0x08000c78   Section        0  stm32f1xx_hal_rcc.o(i.HAL_RCC_GetPCLK2Freq)
    i.HAL_RCC_GetSysClockFreq                0x08000c98   Section        0  stm32f1xx_hal_rcc.o(i.HAL_RCC_GetSysClockFreq)
    i.HAL_RCC_OscConfig                      0x08000d04   Section        0  stm32f1xx_hal_rcc.o(i.HAL_RCC_OscConfig)
    i.HAL_SYSTICK_Config                     0x08001024   Section        0  stm32f1xx_hal_cortex.o(i.HAL_SYSTICK_Config)
    i.HAL_TIMEx_BreakCallback                0x0800104c   Section        0  stm32f1xx_hal_tim_ex.o(i.HAL_TIMEx_BreakCallback)
    i.HAL_TIMEx_CommutCallback               0x0800104e   Section        0  stm32f1xx_hal_tim_ex.o(i.HAL_TIMEx_CommutCallback)
    i.HAL_TIMEx_ConfigBreakDeadTime          0x08001050   Section        0  stm32f1xx_hal_tim_ex.o(i.HAL_TIMEx_ConfigBreakDeadTime)
    i.HAL_TIMEx_MasterConfigSynchronization  0x080010a4   Section        0  stm32f1xx_hal_tim_ex.o(i.HAL_TIMEx_MasterConfigSynchronization)
    i.HAL_TIM_Base_Init                      0x08001104   Section        0  stm32f1xx_hal_tim.o(i.HAL_TIM_Base_Init)
    i.HAL_TIM_Base_MspInit                   0x08001160   Section        0  tim.o(i.HAL_TIM_Base_MspInit)
    i.HAL_TIM_Base_Start_IT                  0x080011b0   Section        0  stm32f1xx_hal_tim.o(i.HAL_TIM_Base_Start_IT)
    i.HAL_TIM_ConfigClockSource              0x08001200   Section        0  stm32f1xx_hal_tim.o(i.HAL_TIM_ConfigClockSource)
    i.HAL_TIM_Encoder_Init                   0x080012d6   Section        0  stm32f1xx_hal_tim.o(i.HAL_TIM_Encoder_Init)
    i.HAL_TIM_Encoder_MspInit                0x0800137c   Section        0  tim.o(i.HAL_TIM_Encoder_MspInit)
    i.HAL_TIM_Encoder_Start                  0x080013e0   Section        0  stm32f1xx_hal_tim.o(i.HAL_TIM_Encoder_Start)
    i.HAL_TIM_IC_CaptureCallback             0x0800146e   Section        0  stm32f1xx_hal_tim.o(i.HAL_TIM_IC_CaptureCallback)
    i.HAL_TIM_IRQHandler                     0x08001470   Section        0  stm32f1xx_hal_tim.o(i.HAL_TIM_IRQHandler)
    i.HAL_TIM_MspPostInit                    0x080015d8   Section        0  tim.o(i.HAL_TIM_MspPostInit)
    i.HAL_TIM_OC_DelayElapsedCallback        0x08001624   Section        0  stm32f1xx_hal_tim.o(i.HAL_TIM_OC_DelayElapsedCallback)
    i.HAL_TIM_PWM_ConfigChannel              0x08001626   Section        0  stm32f1xx_hal_tim.o(i.HAL_TIM_PWM_ConfigChannel)
    i.HAL_TIM_PWM_Init                       0x080016ec   Section        0  stm32f1xx_hal_tim.o(i.HAL_TIM_PWM_Init)
    i.HAL_TIM_PWM_MspInit                    0x08001746   Section        0  stm32f1xx_hal_tim.o(i.HAL_TIM_PWM_MspInit)
    i.HAL_TIM_PWM_PulseFinishedCallback      0x08001748   Section        0  stm32f1xx_hal_tim.o(i.HAL_TIM_PWM_PulseFinishedCallback)
    i.HAL_TIM_PWM_Start                      0x0800174c   Section        0  stm32f1xx_hal_tim.o(i.HAL_TIM_PWM_Start)
    i.HAL_TIM_PWM_Stop                       0x080017e0   Section        0  stm32f1xx_hal_tim.o(i.HAL_TIM_PWM_Stop)
    i.HAL_TIM_PeriodElapsedCallback          0x08001850   Section        0  main.o(i.HAL_TIM_PeriodElapsedCallback)
    i.HAL_TIM_TriggerCallback                0x0800188c   Section        0  stm32f1xx_hal_tim.o(i.HAL_TIM_TriggerCallback)
    i.HAL_UARTEx_RxEventCallback             0x0800188e   Section        0  stm32f1xx_hal_uart.o(i.HAL_UARTEx_RxEventCallback)
    i.HAL_UART_ErrorCallback                 0x08001890   Section        0  stm32f1xx_hal_uart.o(i.HAL_UART_ErrorCallback)
    i.HAL_UART_IRQHandler                    0x08001894   Section        0  stm32f1xx_hal_uart.o(i.HAL_UART_IRQHandler)
    i.HAL_UART_Init                          0x08001aa0   Section        0  stm32f1xx_hal_uart.o(i.HAL_UART_Init)
    i.HAL_UART_MspInit                       0x08001b04   Section        0  usart.o(i.HAL_UART_MspInit)
    i.HAL_UART_RxCpltCallback                0x08001b84   Section        0  stm32f1xx_hal_uart.o(i.HAL_UART_RxCpltCallback)
    i.HAL_UART_Transmit                      0x08001b88   Section        0  stm32f1xx_hal_uart.o(i.HAL_UART_Transmit)
    i.HAL_UART_TxCpltCallback                0x08001c3a   Section        0  stm32f1xx_hal_uart.o(i.HAL_UART_TxCpltCallback)
    i.HardFault_Handler                      0x08001c3c   Section        0  stm32f1xx_it.o(i.HardFault_Handler)
    i.I2C_Delay                              0x08001c3e   Section        0  iic.o(i.I2C_Delay)
    I2C_Delay                                0x08001c3f   Thumb Code    12  iic.o(i.I2C_Delay)
    i.I2C_InitGPIO                           0x08001c4c   Section        0  iic.o(i.I2C_InitGPIO)
    i.I2C_SendByte                           0x08001c9c   Section        0  iic.o(i.I2C_SendByte)
    i.I2C_Start                              0x08001d08   Section        0  iic.o(i.I2C_Start)
    i.I2C_Stop                               0x08001d50   Section        0  iic.o(i.I2C_Stop)
    i.I2C_WaitAck                            0x08001d84   Section        0  iic.o(i.I2C_WaitAck)
    i.Key_scan                               0x08001dd4   Section        0  key.o(i.Key_scan)
    i.MX_ADC1_Init                           0x08001e48   Section        0  adc.o(i.MX_ADC1_Init)
    i.MX_GPIO_Init                           0x08001ed8   Section        0  gpio.o(i.MX_GPIO_Init)
    i.MX_IWDG_Init                           0x08001fc0   Section        0  iwdg.o(i.MX_IWDG_Init)
    i.MX_TIM1_Init                           0x08001fec   Section        0  tim.o(i.MX_TIM1_Init)
    i.MX_TIM2_Init                           0x080020dc   Section        0  tim.o(i.MX_TIM2_Init)
    i.MX_TIM3_Init                           0x08002144   Section        0  tim.o(i.MX_TIM3_Init)
    i.MX_USART2_UART_Init                    0x080021b0   Section        0  usart.o(i.MX_USART2_UART_Init)
    i.MemManage_Handler                      0x080021e8   Section        0  stm32f1xx_it.o(i.MemManage_Handler)
    i.Motor_Start                            0x080021ec   Section        0  motor.o(i.Motor_Start)
    i.Motor_Stop                             0x08002208   Section        0  motor.o(i.Motor_Stop)
    i.Mune                                   0x08002258   Section        0  user_function.o(i.Mune)
    i.NMI_Handler                            0x080022c4   Section        0  stm32f1xx_it.o(i.NMI_Handler)
    i.OLED_CLS                               0x080022c6   Section        0  iic_oled.o(i.OLED_CLS)
    i.OLED_Clear_Arrowhead                   0x080022cc   Section        0  menu.o(i.OLED_Clear_Arrowhead)
    i.OLED_DrawBMP                           0x08002308   Section        0  iic_oled.o(i.OLED_DrawBMP)
    i.OLED_Fill                              0x08002348   Section        0  iic_oled.o(i.OLED_Fill)
    i.OLED_Init                              0x08002380   Section        0  iic_oled.o(i.OLED_Init)
    i.OLED_SetPos                            0x08002438   Section        0  iic_oled.o(i.OLED_SetPos)
    i.OLED_ShowChar                          0x08002460   Section        0  iic_oled.o(i.OLED_ShowChar)
    i.OLED_ShowNum                           0x080024e8   Section        0  iic_oled.o(i.OLED_ShowNum)
    i.OLED_ShowStr                           0x08002554   Section        0  iic_oled.o(i.OLED_ShowStr)
    i.PendSV_Handler                         0x0800262c   Section        0  stm32f1xx_it.o(i.PendSV_Handler)
    i.SVC_Handler                            0x0800262e   Section        0  stm32f1xx_it.o(i.SVC_Handler)
    i.Schedule                               0x08002630   Section        0  user_scheduler.o(i.Schedule)
    i.Six_Step_Phase                         0x08002694   Section        0  motor.o(i.Six_Step_Phase)
    i.SysTick_Handler                        0x080027bc   Section        0  stm32f1xx_it.o(i.SysTick_Handler)
    i.Sys_init                               0x080027c0   Section        0  main.o(i.Sys_init)
    i.SystemClock_Config                     0x08002844   Section        0  main.o(i.SystemClock_Config)
    i.SystemInit                             0x080028c4   Section        0  system_stm32f1xx.o(i.SystemInit)
    i.TIM2_IRQHandler                        0x080028c8   Section        0  stm32f1xx_it.o(i.TIM2_IRQHandler)
    i.TIM3_IRQHandler                        0x080028d4   Section        0  stm32f1xx_it.o(i.TIM3_IRQHandler)
    i.TIM_Base_SetConfig                     0x080028e0   Section        0  stm32f1xx_hal_tim.o(i.TIM_Base_SetConfig)
    i.TIM_CCxChannelCmd                      0x0800293c   Section        0  stm32f1xx_hal_tim.o(i.TIM_CCxChannelCmd)
    i.TIM_ETR_SetConfig                      0x08002956   Section        0  stm32f1xx_hal_tim.o(i.TIM_ETR_SetConfig)
    i.TIM_ITRx_SetConfig                     0x0800296a   Section        0  stm32f1xx_hal_tim.o(i.TIM_ITRx_SetConfig)
    TIM_ITRx_SetConfig                       0x0800296b   Thumb Code    16  stm32f1xx_hal_tim.o(i.TIM_ITRx_SetConfig)
    i.TIM_OC1_SetConfig                      0x0800297c   Section        0  stm32f1xx_hal_tim.o(i.TIM_OC1_SetConfig)
    TIM_OC1_SetConfig                        0x0800297d   Thumb Code    74  stm32f1xx_hal_tim.o(i.TIM_OC1_SetConfig)
    i.TIM_OC2_SetConfig                      0x080029cc   Section        0  stm32f1xx_hal_tim.o(i.TIM_OC2_SetConfig)
    i.TIM_OC3_SetConfig                      0x08002a24   Section        0  stm32f1xx_hal_tim.o(i.TIM_OC3_SetConfig)
    TIM_OC3_SetConfig                        0x08002a25   Thumb Code    82  stm32f1xx_hal_tim.o(i.TIM_OC3_SetConfig)
    i.TIM_OC4_SetConfig                      0x08002a7c   Section        0  stm32f1xx_hal_tim.o(i.TIM_OC4_SetConfig)
    TIM_OC4_SetConfig                        0x08002a7d   Thumb Code    64  stm32f1xx_hal_tim.o(i.TIM_OC4_SetConfig)
    i.TIM_TI1_ConfigInputStage               0x08002ac0   Section        0  stm32f1xx_hal_tim.o(i.TIM_TI1_ConfigInputStage)
    TIM_TI1_ConfigInputStage                 0x08002ac1   Thumb Code    34  stm32f1xx_hal_tim.o(i.TIM_TI1_ConfigInputStage)
    i.TIM_TI2_ConfigInputStage               0x08002ae2   Section        0  stm32f1xx_hal_tim.o(i.TIM_TI2_ConfigInputStage)
    TIM_TI2_ConfigInputStage                 0x08002ae3   Thumb Code    36  stm32f1xx_hal_tim.o(i.TIM_TI2_ConfigInputStage)
    i.UART_DMAAbortOnError                   0x08002b06   Section        0  stm32f1xx_hal_uart.o(i.UART_DMAAbortOnError)
    UART_DMAAbortOnError                     0x08002b07   Thumb Code    16  stm32f1xx_hal_uart.o(i.UART_DMAAbortOnError)
    i.UART_EndRxTransfer                     0x08002b16   Section        0  stm32f1xx_hal_uart.o(i.UART_EndRxTransfer)
    UART_EndRxTransfer                       0x08002b17   Thumb Code    48  stm32f1xx_hal_uart.o(i.UART_EndRxTransfer)
    i.UART_Receive_IT                        0x08002b46   Section        0  stm32f1xx_hal_uart.o(i.UART_Receive_IT)
    UART_Receive_IT                          0x08002b47   Thumb Code   182  stm32f1xx_hal_uart.o(i.UART_Receive_IT)
    i.UART_SetConfig                         0x08002bfc   Section        0  stm32f1xx_hal_uart.o(i.UART_SetConfig)
    UART_SetConfig                           0x08002bfd   Thumb Code   178  stm32f1xx_hal_uart.o(i.UART_SetConfig)
    i.UART_WaitOnFlagUntilTimeout            0x08002cb4   Section        0  stm32f1xx_hal_uart.o(i.UART_WaitOnFlagUntilTimeout)
    UART_WaitOnFlagUntilTimeout              0x08002cb5   Thumb Code   100  stm32f1xx_hal_uart.o(i.UART_WaitOnFlagUntilTimeout)
    i.USART2_IRQHandler                      0x08002d18   Section        0  stm32f1xx_it.o(i.USART2_IRQHandler)
    i.UsageFault_Handler                     0x08002d24   Section        0  stm32f1xx_it.o(i.UsageFault_Handler)
    i.WriteCmd                               0x08002d26   Section        0  iic_oled.o(i.WriteCmd)
    i.WriteDat                               0x08002d30   Section        0  iic_oled.o(i.WriteDat)
    i.__0printf$bare                         0x08002d3c   Section        0  printfb.o(i.__0printf$bare)
    i.__NVIC_SetPriority                     0x08002d4c   Section        0  stm32f1xx_hal_cortex.o(i.__NVIC_SetPriority)
    __NVIC_SetPriority                       0x08002d4d   Thumb Code    32  stm32f1xx_hal_cortex.o(i.__NVIC_SetPriority)
    i.__scatterload_copy                     0x08002d6c   Section       14  handlers.o(i.__scatterload_copy)
    i.__scatterload_null                     0x08002d7a   Section        2  handlers.o(i.__scatterload_null)
    i.__scatterload_zeroinit                 0x08002d7c   Section       14  handlers.o(i.__scatterload_zeroinit)
    i._printf_core                           0x08002d8a   Section        0  printfb.o(i._printf_core)
    _printf_core                             0x08002d8b   Thumb Code    34  printfb.o(i._printf_core)
    i.display_UI                             0x08002dac   Section        0  user_function.o(i.display_UI)
    i.fputc                                  0x08002de0   Section        0  main.o(i.fputc)
    i.fun_0                                  0x08002dfc   Section        0  menu.o(i.fun_0)
    i.fun_a                                  0x08002e14   Section        0  menu.o(i.fun_a)
    i.fun_a1                                 0x08002e98   Section        0  menu.o(i.fun_a1)
    i.fun_a11                                0x08002f08   Section        0  menu.o(i.fun_a11)
    i.fun_a111                               0x08002f70   Section        0  menu.o(i.fun_a111)
    i.fun_a12                                0x08002fd0   Section        0  menu.o(i.fun_a12)
    i.fun_a121                               0x08003038   Section        0  menu.o(i.fun_a121)
    i.fun_a2                                 0x08003098   Section        0  menu.o(i.fun_a2)
    i.fun_a21                                0x08003108   Section        0  menu.o(i.fun_a21)
    i.fun_a211                               0x08003174   Section        0  menu.o(i.fun_a211)
    i.fun_a22                                0x080031e4   Section        0  menu.o(i.fun_a22)
    i.fun_a221                               0x08003250   Section        0  menu.o(i.fun_a221)
    i.fun_b                                  0x080032c0   Section        0  menu.o(i.fun_b)
    i.fun_b1                                 0x08003344   Section        0  menu.o(i.fun_b1)
    i.fun_b2                                 0x08003384   Section        0  menu.o(i.fun_b2)
    i.fun_b3                                 0x080033b8   Section        0  menu.o(i.fun_b3)
    i.fun_c                                  0x080033f8   Section        0  menu.o(i.fun_c)
    i.fun_c1                                 0x0800347c   Section        0  menu.o(i.fun_c1)
    i.fun_c11                                0x080034fc   Section        0  menu.o(i.fun_c11)
    i.fun_c111                               0x08003568   Section        0  menu.o(i.fun_c111)
    i.fun_c112                               0x080035a8   Section        0  menu.o(i.fun_c112)
    i.fun_c113                               0x080035dc   Section        0  menu.o(i.fun_c113)
    i.fun_c12                                0x0800361c   Section        0  menu.o(i.fun_c12)
    i.fun_c121                               0x08003688   Section        0  menu.o(i.fun_c121)
    i.fun_c122                               0x080036f4   Section        0  menu.o(i.fun_c122)
    i.fun_c2                                 0x08003760   Section        0  menu.o(i.fun_c2)
    i.fun_c21                                0x080037e0   Section        0  menu.o(i.fun_c21)
    i.fun_c22                                0x08003838   Section        0  menu.o(i.fun_c22)
    i.fun_c3                                 0x08003890   Section        0  menu.o(i.fun_c3)
    i.fun_c31                                0x080038d8   Section        0  menu.o(i.fun_c31)
    i.fun_d                                  0x080038dc   Section        0  menu.o(i.fun_d)
    i.fun_d1                                 0x08003960   Section        0  menu.o(i.fun_d1)
    i.get_hall_state                         0x080039e8   Section        0  hall.o(i.get_hall_state)
    i.main                                   0x08003a20   Section        0  main.o(i.main)
    i.mypow                                  0x08003a58   Section        0  iic_oled.o(i.mypow)
    i.write_i2c                              0x08003a68   Section        0  iic.o(i.write_i2c)
    .constdata                               0x08003a9a   Section       16  system_stm32f1xx.o(.constdata)
    .constdata                               0x08003aaa   Section        8  system_stm32f1xx.o(.constdata)
    .constdata                               0x08003ab2   Section     2776  iic_oled.o(.constdata)
    .data                                    0x20000000   Section     1025  main.o(.data)
    .data                                    0x20000404   Section       12  stm32f1xx_hal.o(.data)
    .data                                    0x20000410   Section        4  system_stm32f1xx.o(.data)
    .data                                    0x20000414   Section        8  user_function.o(.data)
    .data                                    0x2000041c   Section        1  user_function.o(.data)
    .data                                    0x20000420   Section        8  user_scheduler.o(.data)
    .data                                    0x20000428   Section      384  menu.o(.data)
    .data                                    0x200005a8   Section        5  motor.o(.data)
    .data                                    0x200005b0   Section        4  stdout.o(.data)
    .bss                                     0x200005b4   Section       48  adc.o(.bss)
    .bss                                     0x200005e4   Section       12  iwdg.o(.bss)
    .bss                                     0x200005f0   Section      216  tim.o(.bss)
    .bss                                     0x200006c8   Section       68  usart.o(.bss)
    STACK                                    0x20000710   Section     1024  startup_stm32f103x6.o(STACK)

    Global Symbols

    Symbol Name                              Value     Ov Type        Size  Object(Section)

    BuildAttributes$$THM_ISAv4$P$D$K$B$S$PE$A:L22UL41UL21$X:L11$S22US41US21$IEEE1$IW$USESV6$~STKCKD$USESV7$~SHL$OSPACE$ROPI$EBA8$MICROLIB$REQ8$PRES8$EABIv2 0x00000000   Number         0  anon$$obj.o ABSOLUTE
    __ARM_use_no_argv                        0x00000000   Number         0  main.o ABSOLUTE
    __arm_fini_                               - Undefined Weak Reference
    __cpp_initialize__aeabi_                  - Undefined Weak Reference
    __cxa_finalize                            - Undefined Weak Reference
    _clock_init                               - Undefined Weak Reference
    _microlib_exit                            - Undefined Weak Reference
    __Vectors_Size                           0x000000ec   Number         0  startup_stm32f103x6.o ABSOLUTE
    __Vectors                                0x08000000   Data           4  startup_stm32f103x6.o(RESET)
    __Vectors_End                            0x080000ec   Data           0  startup_stm32f103x6.o(RESET)
    __main                                   0x080000ed   Thumb Code     0  entry.o(.ARM.Collect$$$$00000000)
    _main_stk                                0x080000ed   Thumb Code     0  entry2.o(.ARM.Collect$$$$00000001)
    _main_scatterload                        0x080000f1   Thumb Code     0  entry5.o(.ARM.Collect$$$$00000004)
    __main_after_scatterload                 0x080000f5   Thumb Code     0  entry5.o(.ARM.Collect$$$$00000004)
    _main_clock                              0x080000f5   Thumb Code     0  entry7b.o(.ARM.Collect$$$$00000008)
    _main_cpp_init                           0x080000f5   Thumb Code     0  entry8b.o(.ARM.Collect$$$$0000000A)
    _main_init                               0x080000f5   Thumb Code     0  entry9a.o(.ARM.Collect$$$$0000000B)
    __rt_lib_shutdown_fini                   0x080000fd   Thumb Code     0  entry12b.o(.ARM.Collect$$$$0000000E)
    __rt_final_cpp                           0x08000101   Thumb Code     0  entry10a.o(.ARM.Collect$$$$0000000F)
    __rt_final_exit                          0x08000101   Thumb Code     0  entry11a.o(.ARM.Collect$$$$00000011)
    Reset_Handler                            0x08000105   Thumb Code     8  startup_stm32f103x6.o(.text)
    ADC1_2_IRQHandler                        0x0800011f   Thumb Code     0  startup_stm32f103x6.o(.text)
    CAN1_RX1_IRQHandler                      0x0800011f   Thumb Code     0  startup_stm32f103x6.o(.text)
    CAN1_SCE_IRQHandler                      0x0800011f   Thumb Code     0  startup_stm32f103x6.o(.text)
    DMA1_Channel1_IRQHandler                 0x0800011f   Thumb Code     0  startup_stm32f103x6.o(.text)
    DMA1_Channel2_IRQHandler                 0x0800011f   Thumb Code     0  startup_stm32f103x6.o(.text)
    DMA1_Channel3_IRQHandler                 0x0800011f   Thumb Code     0  startup_stm32f103x6.o(.text)
    DMA1_Channel4_IRQHandler                 0x0800011f   Thumb Code     0  startup_stm32f103x6.o(.text)
    DMA1_Channel5_IRQHandler                 0x0800011f   Thumb Code     0  startup_stm32f103x6.o(.text)
    DMA1_Channel6_IRQHandler                 0x0800011f   Thumb Code     0  startup_stm32f103x6.o(.text)
    DMA1_Channel7_IRQHandler                 0x0800011f   Thumb Code     0  startup_stm32f103x6.o(.text)
    EXTI0_IRQHandler                         0x0800011f   Thumb Code     0  startup_stm32f103x6.o(.text)
    EXTI1_IRQHandler                         0x0800011f   Thumb Code     0  startup_stm32f103x6.o(.text)
    EXTI2_IRQHandler                         0x0800011f   Thumb Code     0  startup_stm32f103x6.o(.text)
    EXTI3_IRQHandler                         0x0800011f   Thumb Code     0  startup_stm32f103x6.o(.text)
    EXTI4_IRQHandler                         0x0800011f   Thumb Code     0  startup_stm32f103x6.o(.text)
    EXTI9_5_IRQHandler                       0x0800011f   Thumb Code     0  startup_stm32f103x6.o(.text)
    FLASH_IRQHandler                         0x0800011f   Thumb Code     0  startup_stm32f103x6.o(.text)
    I2C1_ER_IRQHandler                       0x0800011f   Thumb Code     0  startup_stm32f103x6.o(.text)
    I2C1_EV_IRQHandler                       0x0800011f   Thumb Code     0  startup_stm32f103x6.o(.text)
    PVD_IRQHandler                           0x0800011f   Thumb Code     0  startup_stm32f103x6.o(.text)
    RCC_IRQHandler                           0x0800011f   Thumb Code     0  startup_stm32f103x6.o(.text)
    RTC_Alarm_IRQHandler                     0x0800011f   Thumb Code     0  startup_stm32f103x6.o(.text)
    RTC_IRQHandler                           0x0800011f   Thumb Code     0  startup_stm32f103x6.o(.text)
    SPI1_IRQHandler                          0x0800011f   Thumb Code     0  startup_stm32f103x6.o(.text)
    TAMPER_IRQHandler                        0x0800011f   Thumb Code     0  startup_stm32f103x6.o(.text)
    TIM1_BRK_IRQHandler                      0x0800011f   Thumb Code     0  startup_stm32f103x6.o(.text)
    TIM1_CC_IRQHandler                       0x0800011f   Thumb Code     0  startup_stm32f103x6.o(.text)
    TIM1_TRG_COM_IRQHandler                  0x0800011f   Thumb Code     0  startup_stm32f103x6.o(.text)
    TIM1_UP_IRQHandler                       0x0800011f   Thumb Code     0  startup_stm32f103x6.o(.text)
    USART1_IRQHandler                        0x0800011f   Thumb Code     0  startup_stm32f103x6.o(.text)
    USBWakeUp_IRQHandler                     0x0800011f   Thumb Code     0  startup_stm32f103x6.o(.text)
    USB_HP_CAN1_TX_IRQHandler                0x0800011f   Thumb Code     0  startup_stm32f103x6.o(.text)
    USB_LP_CAN1_RX0_IRQHandler               0x0800011f   Thumb Code     0  startup_stm32f103x6.o(.text)
    WWDG_IRQHandler                          0x0800011f   Thumb Code     0  startup_stm32f103x6.o(.text)
    __aeabi_memset                           0x08000129   Thumb Code    14  memseta.o(.text)
    __aeabi_memset4                          0x08000129   Thumb Code     0  memseta.o(.text)
    __aeabi_memset8                          0x08000129   Thumb Code     0  memseta.o(.text)
    __aeabi_memclr                           0x08000137   Thumb Code     4  memseta.o(.text)
    __aeabi_memclr4                          0x08000137   Thumb Code     0  memseta.o(.text)
    __aeabi_memclr8                          0x08000137   Thumb Code     0  memseta.o(.text)
    _memset$wrapper                          0x0800013b   Thumb Code    18  memseta.o(.text)
    __scatterload                            0x0800014d   Thumb Code    28  init.o(.text)
    __scatterload_rt2                        0x0800014d   Thumb Code     0  init.o(.text)
    __decompress                             0x08000171   Thumb Code     0  __dczerorl2.o(.text)
    __decompress1                            0x08000171   Thumb Code    86  __dczerorl2.o(.text)
    ADC_ConversionStop_Disable               0x080001c9   Thumb Code    86  stm32f1xx_hal_adc.o(i.ADC_ConversionStop_Disable)
    BusFault_Handler                         0x0800021f   Thumb Code     2  stm32f1xx_it.o(i.BusFault_Handler)
    Change_PWM_Duty                          0x08000221   Thumb Code    28  motor.o(i.Change_PWM_Duty)
    DebugMon_Handler                         0x08000241   Thumb Code     2  stm32f1xx_it.o(i.DebugMon_Handler)
    EXTI15_10_IRQHandler                     0x08000243   Thumb Code    30  stm32f1xx_it.o(i.EXTI15_10_IRQHandler)
    Error_Handler                            0x08000261   Thumb Code     4  main.o(i.Error_Handler)
    FuncRun                                  0x08000265   Thumb Code    50  user_scheduler.o(i.FuncRun)
    HAL_ADC_ConfigChannel                    0x080002a1   Thumb Code   240  stm32f1xx_hal_adc.o(i.HAL_ADC_ConfigChannel)
    HAL_ADC_Init                             0x0800039d   Thumb Code   272  stm32f1xx_hal_adc.o(i.HAL_ADC_Init)
    HAL_ADC_MspInit                          0x080004b9   Thumb Code   102  adc.o(i.HAL_ADC_MspInit)
    HAL_DMA_Abort                            0x08000531   Thumb Code    70  stm32f1xx_hal_dma.o(i.HAL_DMA_Abort)
    HAL_DMA_Abort_IT                         0x08000579   Thumb Code   148  stm32f1xx_hal_dma.o(i.HAL_DMA_Abort_IT)
    HAL_Delay                                0x08000611   Thumb Code    32  stm32f1xx_hal.o(i.HAL_Delay)
    HAL_GPIO_EXTI_Callback                   0x08000635   Thumb Code    58  hall.o(i.HAL_GPIO_EXTI_Callback)
    HAL_GPIO_EXTI_IRQHandler                 0x0800067d   Thumb Code    18  stm32f1xx_hal_gpio.o(i.HAL_GPIO_EXTI_IRQHandler)
    HAL_GPIO_Init                            0x08000695   Thumb Code   418  stm32f1xx_hal_gpio.o(i.HAL_GPIO_Init)
    HAL_GPIO_ReadPin                         0x08000855   Thumb Code    10  stm32f1xx_hal_gpio.o(i.HAL_GPIO_ReadPin)
    HAL_GPIO_TogglePin                       0x0800085f   Thumb Code    16  stm32f1xx_hal_gpio.o(i.HAL_GPIO_TogglePin)
    HAL_GPIO_WritePin                        0x0800086f   Thumb Code    10  stm32f1xx_hal_gpio.o(i.HAL_GPIO_WritePin)
    HAL_GetTick                              0x08000879   Thumb Code     6  stm32f1xx_hal.o(i.HAL_GetTick)
    HAL_IWDG_Init                            0x08000885   Thumb Code    90  stm32f1xx_hal_iwdg.o(i.HAL_IWDG_Init)
    HAL_IWDG_Refresh                         0x080008df   Thumb Code    12  stm32f1xx_hal_iwdg.o(i.HAL_IWDG_Refresh)
    HAL_IncTick                              0x080008ed   Thumb Code    12  stm32f1xx_hal.o(i.HAL_IncTick)
    HAL_Init                                 0x080008fd   Thumb Code    32  stm32f1xx_hal.o(i.HAL_Init)
    HAL_InitTick                             0x08000921   Thumb Code    54  stm32f1xx_hal.o(i.HAL_InitTick)
    HAL_MspInit                              0x08000961   Thumb Code    52  stm32f1xx_hal_msp.o(i.HAL_MspInit)
    HAL_NVIC_EnableIRQ                       0x0800099d   Thumb Code    26  stm32f1xx_hal_cortex.o(i.HAL_NVIC_EnableIRQ)
    HAL_NVIC_SetPriority                     0x080009b9   Thumb Code    60  stm32f1xx_hal_cortex.o(i.HAL_NVIC_SetPriority)
    HAL_NVIC_SetPriorityGrouping             0x080009f9   Thumb Code    26  stm32f1xx_hal_cortex.o(i.HAL_NVIC_SetPriorityGrouping)
    HAL_NVIC_SystemReset                     0x08000a1d   Thumb Code    26  stm32f1xx_hal_cortex.o(i.HAL_NVIC_SystemReset)
    HAL_RCCEx_PeriphCLKConfig                0x08000a41   Thumb Code   224  stm32f1xx_hal_rcc_ex.o(i.HAL_RCCEx_PeriphCLKConfig)
    HAL_RCC_ClockConfig                      0x08000b2d   Thumb Code   280  stm32f1xx_hal_rcc.o(i.HAL_RCC_ClockConfig)
    HAL_RCC_GetPCLK1Freq                     0x08000c59   Thumb Code    20  stm32f1xx_hal_rcc.o(i.HAL_RCC_GetPCLK1Freq)
    HAL_RCC_GetPCLK2Freq                     0x08000c79   Thumb Code    20  stm32f1xx_hal_rcc.o(i.HAL_RCC_GetPCLK2Freq)
    HAL_RCC_GetSysClockFreq                  0x08000c99   Thumb Code    74  stm32f1xx_hal_rcc.o(i.HAL_RCC_GetSysClockFreq)
    HAL_RCC_OscConfig                        0x08000d05   Thumb Code   778  stm32f1xx_hal_rcc.o(i.HAL_RCC_OscConfig)
    HAL_SYSTICK_Config                       0x08001025   Thumb Code    40  stm32f1xx_hal_cortex.o(i.HAL_SYSTICK_Config)
    HAL_TIMEx_BreakCallback                  0x0800104d   Thumb Code     2  stm32f1xx_hal_tim_ex.o(i.HAL_TIMEx_BreakCallback)
    HAL_TIMEx_CommutCallback                 0x0800104f   Thumb Code     2  stm32f1xx_hal_tim_ex.o(i.HAL_TIMEx_CommutCallback)
    HAL_TIMEx_ConfigBreakDeadTime            0x08001051   Thumb Code    84  stm32f1xx_hal_tim_ex.o(i.HAL_TIMEx_ConfigBreakDeadTime)
    HAL_TIMEx_MasterConfigSynchronization    0x080010a5   Thumb Code    86  stm32f1xx_hal_tim_ex.o(i.HAL_TIMEx_MasterConfigSynchronization)
    HAL_TIM_Base_Init                        0x08001105   Thumb Code    90  stm32f1xx_hal_tim.o(i.HAL_TIM_Base_Init)
    HAL_TIM_Base_MspInit                     0x08001161   Thumb Code    72  tim.o(i.HAL_TIM_Base_MspInit)
    HAL_TIM_Base_Start_IT                    0x080011b1   Thumb Code    70  stm32f1xx_hal_tim.o(i.HAL_TIM_Base_Start_IT)
    HAL_TIM_ConfigClockSource                0x08001201   Thumb Code   214  stm32f1xx_hal_tim.o(i.HAL_TIM_ConfigClockSource)
    HAL_TIM_Encoder_Init                     0x080012d7   Thumb Code   164  stm32f1xx_hal_tim.o(i.HAL_TIM_Encoder_Init)
    HAL_TIM_Encoder_MspInit                  0x0800137d   Thumb Code    88  tim.o(i.HAL_TIM_Encoder_MspInit)
    HAL_TIM_Encoder_Start                    0x080013e1   Thumb Code   142  stm32f1xx_hal_tim.o(i.HAL_TIM_Encoder_Start)
    HAL_TIM_IC_CaptureCallback               0x0800146f   Thumb Code     2  stm32f1xx_hal_tim.o(i.HAL_TIM_IC_CaptureCallback)
    HAL_TIM_IRQHandler                       0x08001471   Thumb Code   358  stm32f1xx_hal_tim.o(i.HAL_TIM_IRQHandler)
    HAL_TIM_MspPostInit                      0x080015d9   Thumb Code    64  tim.o(i.HAL_TIM_MspPostInit)
    HAL_TIM_OC_DelayElapsedCallback          0x08001625   Thumb Code     2  stm32f1xx_hal_tim.o(i.HAL_TIM_OC_DelayElapsedCallback)
    HAL_TIM_PWM_ConfigChannel                0x08001627   Thumb Code   198  stm32f1xx_hal_tim.o(i.HAL_TIM_PWM_ConfigChannel)
    HAL_TIM_PWM_Init                         0x080016ed   Thumb Code    90  stm32f1xx_hal_tim.o(i.HAL_TIM_PWM_Init)
    HAL_TIM_PWM_MspInit                      0x08001747   Thumb Code     2  stm32f1xx_hal_tim.o(i.HAL_TIM_PWM_MspInit)
    HAL_TIM_PWM_PulseFinishedCallback        0x08001749   Thumb Code     2  stm32f1xx_hal_tim.o(i.HAL_TIM_PWM_PulseFinishedCallback)
    HAL_TIM_PWM_Start                        0x0800174d   Thumb Code   138  stm32f1xx_hal_tim.o(i.HAL_TIM_PWM_Start)
    HAL_TIM_PWM_Stop                         0x080017e1   Thumb Code   108  stm32f1xx_hal_tim.o(i.HAL_TIM_PWM_Stop)
    HAL_TIM_PeriodElapsedCallback            0x08001851   Thumb Code    44  main.o(i.HAL_TIM_PeriodElapsedCallback)
    HAL_TIM_TriggerCallback                  0x0800188d   Thumb Code     2  stm32f1xx_hal_tim.o(i.HAL_TIM_TriggerCallback)
    HAL_UARTEx_RxEventCallback               0x0800188f   Thumb Code     2  stm32f1xx_hal_uart.o(i.HAL_UARTEx_RxEventCallback)
    HAL_UART_ErrorCallback                   0x08001891   Thumb Code     2  stm32f1xx_hal_uart.o(i.HAL_UART_ErrorCallback)
    HAL_UART_IRQHandler                      0x08001895   Thumb Code   520  stm32f1xx_hal_uart.o(i.HAL_UART_IRQHandler)
    HAL_UART_Init                            0x08001aa1   Thumb Code    98  stm32f1xx_hal_uart.o(i.HAL_UART_Init)
    HAL_UART_MspInit                         0x08001b05   Thumb Code   114  usart.o(i.HAL_UART_MspInit)
    HAL_UART_RxCpltCallback                  0x08001b85   Thumb Code     2  stm32f1xx_hal_uart.o(i.HAL_UART_RxCpltCallback)
    HAL_UART_Transmit                        0x08001b89   Thumb Code   178  stm32f1xx_hal_uart.o(i.HAL_UART_Transmit)
    HAL_UART_TxCpltCallback                  0x08001c3b   Thumb Code     2  stm32f1xx_hal_uart.o(i.HAL_UART_TxCpltCallback)
    HardFault_Handler                        0x08001c3d   Thumb Code     2  stm32f1xx_it.o(i.HardFault_Handler)
    I2C_InitGPIO                             0x08001c4d   Thumb Code    68  iic.o(i.I2C_InitGPIO)
    I2C_SendByte                             0x08001c9d   Thumb Code    98  iic.o(i.I2C_SendByte)
    I2C_Start                                0x08001d09   Thumb Code    64  iic.o(i.I2C_Start)
    I2C_Stop                                 0x08001d51   Thumb Code    42  iic.o(i.I2C_Stop)
    I2C_WaitAck                              0x08001d85   Thumb Code    70  iic.o(i.I2C_WaitAck)
    Key_scan                                 0x08001dd5   Thumb Code   108  key.o(i.Key_scan)
    MX_ADC1_Init                             0x08001e49   Thumb Code   136  adc.o(i.MX_ADC1_Init)
    MX_GPIO_Init                             0x08001ed9   Thumb Code   212  gpio.o(i.MX_GPIO_Init)
    MX_IWDG_Init                             0x08001fc1   Thumb Code    36  iwdg.o(i.MX_IWDG_Init)
    MX_TIM1_Init                             0x08001fed   Thumb Code   230  tim.o(i.MX_TIM1_Init)
    MX_TIM2_Init                             0x080020dd   Thumb Code    98  tim.o(i.MX_TIM2_Init)
    MX_TIM3_Init                             0x08002145   Thumb Code   100  tim.o(i.MX_TIM3_Init)
    MX_USART2_UART_Init                      0x080021b1   Thumb Code    48  usart.o(i.MX_USART2_UART_Init)
    MemManage_Handler                        0x080021e9   Thumb Code     2  stm32f1xx_it.o(i.MemManage_Handler)
    Motor_Start                              0x080021ed   Thumb Code    24  motor.o(i.Motor_Start)
    Motor_Stop                               0x08002209   Thumb Code    66  motor.o(i.Motor_Stop)
    Mune                                     0x08002259   Thumb Code    98  user_function.o(i.Mune)
    NMI_Handler                              0x080022c5   Thumb Code     2  stm32f1xx_it.o(i.NMI_Handler)
    OLED_CLS                                 0x080022c7   Thumb Code     6  iic_oled.o(i.OLED_CLS)
    OLED_Clear_Arrowhead                     0x080022cd   Thumb Code    54  menu.o(i.OLED_Clear_Arrowhead)
    OLED_DrawBMP                             0x08002309   Thumb Code    62  iic_oled.o(i.OLED_DrawBMP)
    OLED_Fill                                0x08002349   Thumb Code    56  iic_oled.o(i.OLED_Fill)
    OLED_Init                                0x08002381   Thumb Code   184  iic_oled.o(i.OLED_Init)
    OLED_SetPos                              0x08002439   Thumb Code    38  iic_oled.o(i.OLED_SetPos)
    OLED_ShowChar                            0x08002461   Thumb Code   126  iic_oled.o(i.OLED_ShowChar)
    OLED_ShowNum                             0x080024e9   Thumb Code   106  iic_oled.o(i.OLED_ShowNum)
    OLED_ShowStr                             0x08002555   Thumb Code   208  iic_oled.o(i.OLED_ShowStr)
    PendSV_Handler                           0x0800262d   Thumb Code     2  stm32f1xx_it.o(i.PendSV_Handler)
    SVC_Handler                              0x0800262f   Thumb Code     2  stm32f1xx_it.o(i.SVC_Handler)
    Schedule                                 0x08002631   Thumb Code    92  user_scheduler.o(i.Schedule)
    Six_Step_Phase                           0x08002695   Thumb Code   286  motor.o(i.Six_Step_Phase)
    SysTick_Handler                          0x080027bd   Thumb Code     4  stm32f1xx_it.o(i.SysTick_Handler)
    Sys_init                                 0x080027c1   Thumb Code    70  main.o(i.Sys_init)
    SystemClock_Config                       0x08002845   Thumb Code   128  main.o(i.SystemClock_Config)
    SystemInit                               0x080028c5   Thumb Code     2  system_stm32f1xx.o(i.SystemInit)
    TIM2_IRQHandler                          0x080028c9   Thumb Code     6  stm32f1xx_it.o(i.TIM2_IRQHandler)
    TIM3_IRQHandler                          0x080028d5   Thumb Code     6  stm32f1xx_it.o(i.TIM3_IRQHandler)
    TIM_Base_SetConfig                       0x080028e1   Thumb Code    84  stm32f1xx_hal_tim.o(i.TIM_Base_SetConfig)
    TIM_CCxChannelCmd                        0x0800293d   Thumb Code    26  stm32f1xx_hal_tim.o(i.TIM_CCxChannelCmd)
    TIM_ETR_SetConfig                        0x08002957   Thumb Code    20  stm32f1xx_hal_tim.o(i.TIM_ETR_SetConfig)
    TIM_OC2_SetConfig                        0x080029cd   Thumb Code    84  stm32f1xx_hal_tim.o(i.TIM_OC2_SetConfig)
    USART2_IRQHandler                        0x08002d19   Thumb Code     6  stm32f1xx_it.o(i.USART2_IRQHandler)
    UsageFault_Handler                       0x08002d25   Thumb Code     2  stm32f1xx_it.o(i.UsageFault_Handler)
    WriteCmd                                 0x08002d27   Thumb Code    10  iic_oled.o(i.WriteCmd)
    WriteDat                                 0x08002d31   Thumb Code    10  iic_oled.o(i.WriteDat)
    __0printf$bare                           0x08002d3d   Thumb Code     8  printfb.o(i.__0printf$bare)
    __1printf$bare                           0x08002d3d   Thumb Code     0  printfb.o(i.__0printf$bare)
    __2printf                                0x08002d3d   Thumb Code     0  printfb.o(i.__0printf$bare)
    __scatterload_copy                       0x08002d6d   Thumb Code    14  handlers.o(i.__scatterload_copy)
    __scatterload_null                       0x08002d7b   Thumb Code     2  handlers.o(i.__scatterload_null)
    __scatterload_zeroinit                   0x08002d7d   Thumb Code    14  handlers.o(i.__scatterload_zeroinit)
    display_UI                               0x08002dad   Thumb Code    44  user_function.o(i.display_UI)
    fputc                                    0x08002de1   Thumb Code    24  main.o(i.fputc)
    fun_0                                    0x08002dfd   Thumb Code    20  menu.o(i.fun_0)
    fun_a                                    0x08002e15   Thumb Code    66  menu.o(i.fun_a)
    fun_a1                                   0x08002e99   Thumb Code    54  menu.o(i.fun_a1)
    fun_a11                                  0x08002f09   Thumb Code    54  menu.o(i.fun_a11)
    fun_a111                                 0x08002f71   Thumb Code    44  menu.o(i.fun_a111)
    fun_a12                                  0x08002fd1   Thumb Code    54  menu.o(i.fun_a12)
    fun_a121                                 0x08003039   Thumb Code    44  menu.o(i.fun_a121)
    fun_a2                                   0x08003099   Thumb Code    54  menu.o(i.fun_a2)
    fun_a21                                  0x08003109   Thumb Code    54  menu.o(i.fun_a21)
    fun_a211                                 0x08003175   Thumb Code    58  menu.o(i.fun_a211)
    fun_a22                                  0x080031e5   Thumb Code    54  menu.o(i.fun_a22)
    fun_a221                                 0x08003251   Thumb Code    58  menu.o(i.fun_a221)
    fun_b                                    0x080032c1   Thumb Code    66  menu.o(i.fun_b)
    fun_b1                                   0x08003345   Thumb Code    48  menu.o(i.fun_b1)
    fun_b2                                   0x08003385   Thumb Code    34  menu.o(i.fun_b2)
    fun_b3                                   0x080033b9   Thumb Code    48  menu.o(i.fun_b3)
    fun_c                                    0x080033f9   Thumb Code    66  menu.o(i.fun_c)
    fun_c1                                   0x0800347d   Thumb Code    66  menu.o(i.fun_c1)
    fun_c11                                  0x080034fd   Thumb Code    54  menu.o(i.fun_c11)
    fun_c111                                 0x08003569   Thumb Code    48  menu.o(i.fun_c111)
    fun_c112                                 0x080035a9   Thumb Code    34  menu.o(i.fun_c112)
    fun_c113                                 0x080035dd   Thumb Code    48  menu.o(i.fun_c113)
    fun_c12                                  0x0800361d   Thumb Code    54  menu.o(i.fun_c12)
    fun_c121                                 0x08003689   Thumb Code    54  menu.o(i.fun_c121)
    fun_c122                                 0x080036f5   Thumb Code    54  menu.o(i.fun_c122)
    fun_c2                                   0x08003761   Thumb Code    66  menu.o(i.fun_c2)
    fun_c21                                  0x080037e1   Thumb Code    54  menu.o(i.fun_c21)
    fun_c22                                  0x08003839   Thumb Code    54  menu.o(i.fun_c22)
    fun_c3                                   0x08003891   Thumb Code    42  menu.o(i.fun_c3)
    fun_c31                                  0x080038d9   Thumb Code     4  menu.o(i.fun_c31)
    fun_d                                    0x080038dd   Thumb Code    66  menu.o(i.fun_d)
    fun_d1                                   0x08003961   Thumb Code    66  menu.o(i.fun_d1)
    get_hall_state                           0x080039e9   Thumb Code    50  hall.o(i.get_hall_state)
    main                                     0x08003a21   Thumb Code    52  main.o(i.main)
    mypow                                    0x08003a59   Thumb Code    16  iic_oled.o(i.mypow)
    write_i2c                                0x08003a69   Thumb Code    50  iic.o(i.write_i2c)
    AHBPrescTable                            0x08003a9a   Data          16  system_stm32f1xx.o(.constdata)
    APBPrescTable                            0x08003aaa   Data           8  system_stm32f1xx.o(.constdata)
    F16x16                                   0x08003ab2   Data         704  iic_oled.o(.constdata)
    F6x8                                     0x08003d72   Data         552  iic_oled.o(.constdata)
    F8X16                                    0x08003f9a   Data        1520  iic_oled.o(.constdata)
    Region$$Table$$Base                      0x0800458c   Number         0  anon$$obj.o(Region$$Table)
    Region$$Table$$Limit                     0x080045ac   Number         0  anon$$obj.o(Region$$Table)
    SYS_TIME1S_FLAG                          0x20000000   Data           1  main.o(.data)
    BMP0                                     0x20000001   Data        1024  main.o(.data)
    uwTickFreq                               0x20000404   Data           1  stm32f1xx_hal.o(.data)
    uwTickPrio                               0x20000408   Data           4  stm32f1xx_hal.o(.data)
    uwTick                                   0x2000040c   Data           4  stm32f1xx_hal.o(.data)
    SystemCoreClock                          0x20000410   Data           4  system_stm32f1xx.o(.data)
    KEY_Value                                0x20000414   Data           1  user_function.o(.data)
    index                                    0x20000415   Data           1  user_function.o(.data)
    current_operation_index                  0x20000418   Data           4  user_function.o(.data)
    Duty                                     0x2000041c   Data           1  user_function.o(.data)
    MS_count                                 0x20000420   Data           2  user_scheduler.o(.data)
    tSysScanFlag                             0x20000424   Data           4  user_scheduler.o(.data)
    table                                    0x20000428   Data         384  menu.o(.data)
    my_motor                                 0x200005a8   Data           5  motor.o(.data)
    __stdout                                 0x200005b0   Data           4  stdout.o(.data)
    hadc1                                    0x200005b4   Data          48  adc.o(.bss)
    hiwdg                                    0x200005e4   Data          12  iwdg.o(.bss)
    htim1                                    0x200005f0   Data          72  tim.o(.bss)
    htim2                                    0x20000638   Data          72  tim.o(.bss)
    htim3                                    0x20000680   Data          72  tim.o(.bss)
    huart2                                   0x200006c8   Data          68  usart.o(.bss)
    __initial_sp                             0x20000b10   Data           0  startup_stm32f103x6.o(STACK)



==============================================================================

Memory Map of the image

  Image Entry point : 0x080000ed

  Load Region LR_IROM1 (Base: 0x08000000, Size: 0x00004b60, Max: 0x00040000, ABSOLUTE, COMPRESSED[0x00004860])

    Execution Region ER_IROM1 (Exec base: 0x08000000, Load base: 0x08000000, Size: 0x000045ac, Max: 0x00040000, ABSOLUTE)

    Exec Addr    Load Addr    Size         Type   Attr      Idx    E Section Name        Object

    0x08000000   0x08000000   0x000000ec   Data   RO            3    RESET               startup_stm32f103x6.o
    0x080000ec   0x080000ec   0x00000000   Code   RO         3896  * .ARM.Collect$$$$00000000  mc_w.l(entry.o)
    0x080000ec   0x080000ec   0x00000004   Code   RO         4163    .ARM.Collect$$$$00000001  mc_w.l(entry2.o)
    0x080000f0   0x080000f0   0x00000004   Code   RO         4166    .ARM.Collect$$$$00000004  mc_w.l(entry5.o)
    0x080000f4   0x080000f4   0x00000000   Code   RO         4168    .ARM.Collect$$$$00000008  mc_w.l(entry7b.o)
    0x080000f4   0x080000f4   0x00000000   Code   RO         4170    .ARM.Collect$$$$0000000A  mc_w.l(entry8b.o)
    0x080000f4   0x080000f4   0x00000008   Code   RO         4171    .ARM.Collect$$$$0000000B  mc_w.l(entry9a.o)
    0x080000fc   0x080000fc   0x00000004   Code   RO         4178    .ARM.Collect$$$$0000000E  mc_w.l(entry12b.o)
    0x08000100   0x08000100   0x00000000   Code   RO         4173    .ARM.Collect$$$$0000000F  mc_w.l(entry10a.o)
    0x08000100   0x08000100   0x00000000   Code   RO         4175    .ARM.Collect$$$$00000011  mc_w.l(entry11a.o)
    0x08000100   0x08000100   0x00000004   Code   RO         4164    .ARM.Collect$$$$00002712  mc_w.l(entry2.o)
    0x08000104   0x08000104   0x00000024   Code   RO            4    .text               startup_stm32f103x6.o
    0x08000128   0x08000128   0x00000024   Code   RO         3901    .text               mc_w.l(memseta.o)
    0x0800014c   0x0800014c   0x00000024   Code   RO         4195    .text               mc_w.l(init.o)
    0x08000170   0x08000170   0x00000056   Code   RO         4211    .text               mc_w.l(__dczerorl2.o)
    0x080001c6   0x080001c6   0x00000002   PAD
    0x080001c8   0x080001c8   0x00000056   Code   RO          595    i.ADC_ConversionStop_Disable  stm32f1xx_hal_adc.o
    0x0800021e   0x0800021e   0x00000002   Code   RO          435    i.BusFault_Handler  stm32f1xx_it.o
    0x08000220   0x08000220   0x00000020   Code   RO         3851    i.Change_PWM_Duty   motor.o
    0x08000240   0x08000240   0x00000002   Code   RO          436    i.DebugMon_Handler  stm32f1xx_it.o
    0x08000242   0x08000242   0x0000001e   Code   RO          437    i.EXTI15_10_IRQHandler  stm32f1xx_it.o
    0x08000260   0x08000260   0x00000004   Code   RO           13    i.Error_Handler     main.o
    0x08000264   0x08000264   0x0000003c   Code   RO         3293    i.FuncRun           user_scheduler.o
    0x080002a0   0x080002a0   0x000000fc   Code   RO          601    i.HAL_ADC_ConfigChannel  stm32f1xx_hal_adc.o
    0x0800039c   0x0800039c   0x0000011c   Code   RO          610    i.HAL_ADC_Init      stm32f1xx_hal_adc.o
    0x080004b8   0x080004b8   0x00000078   Code   RO          250    i.HAL_ADC_MspInit   adc.o
    0x08000530   0x08000530   0x00000046   Code   RO         1250    i.HAL_DMA_Abort     stm32f1xx_hal_dma.o
    0x08000576   0x08000576   0x00000002   PAD
    0x08000578   0x08000578   0x00000098   Code   RO         1251    i.HAL_DMA_Abort_IT  stm32f1xx_hal_dma.o
    0x08000610   0x08000610   0x00000024   Code   RO          878    i.HAL_Delay         stm32f1xx_hal.o
    0x08000634   0x08000634   0x00000048   Code   RO         3818    i.HAL_GPIO_EXTI_Callback  hall.o
    0x0800067c   0x0800067c   0x00000018   Code   RO         1185    i.HAL_GPIO_EXTI_IRQHandler  stm32f1xx_hal_gpio.o
    0x08000694   0x08000694   0x000001c0   Code   RO         1186    i.HAL_GPIO_Init     stm32f1xx_hal_gpio.o
    0x08000854   0x08000854   0x0000000a   Code   RO         1188    i.HAL_GPIO_ReadPin  stm32f1xx_hal_gpio.o
    0x0800085e   0x0800085e   0x00000010   Code   RO         1189    i.HAL_GPIO_TogglePin  stm32f1xx_hal_gpio.o
    0x0800086e   0x0800086e   0x0000000a   Code   RO         1190    i.HAL_GPIO_WritePin  stm32f1xx_hal_gpio.o
    0x08000878   0x08000878   0x0000000c   Code   RO          882    i.HAL_GetTick       stm32f1xx_hal.o
    0x08000884   0x08000884   0x0000005a   Code   RO         1836    i.HAL_IWDG_Init     stm32f1xx_hal_iwdg.o
    0x080008de   0x080008de   0x0000000c   Code   RO         1837    i.HAL_IWDG_Refresh  stm32f1xx_hal_iwdg.o
    0x080008ea   0x080008ea   0x00000002   PAD
    0x080008ec   0x080008ec   0x00000010   Code   RO          888    i.HAL_IncTick       stm32f1xx_hal.o
    0x080008fc   0x080008fc   0x00000024   Code   RO          889    i.HAL_Init          stm32f1xx_hal.o
    0x08000920   0x08000920   0x00000040   Code   RO          890    i.HAL_InitTick      stm32f1xx_hal.o
    0x08000960   0x08000960   0x0000003c   Code   RO          535    i.HAL_MspInit       stm32f1xx_hal_msp.o
    0x0800099c   0x0800099c   0x0000001a   Code   RO         1346    i.HAL_NVIC_EnableIRQ  stm32f1xx_hal_cortex.o
    0x080009b6   0x080009b6   0x00000002   PAD
    0x080009b8   0x080009b8   0x00000040   Code   RO         1352    i.HAL_NVIC_SetPriority  stm32f1xx_hal_cortex.o
    0x080009f8   0x080009f8   0x00000024   Code   RO         1353    i.HAL_NVIC_SetPriorityGrouping  stm32f1xx_hal_cortex.o
    0x08000a1c   0x08000a1c   0x00000024   Code   RO         1354    i.HAL_NVIC_SystemReset  stm32f1xx_hal_cortex.o
    0x08000a40   0x08000a40   0x000000ec   Code   RO         1149    i.HAL_RCCEx_PeriphCLKConfig  stm32f1xx_hal_rcc_ex.o
    0x08000b2c   0x08000b2c   0x0000012c   Code   RO         1046    i.HAL_RCC_ClockConfig  stm32f1xx_hal_rcc.o
    0x08000c58   0x08000c58   0x00000020   Code   RO         1053    i.HAL_RCC_GetPCLK1Freq  stm32f1xx_hal_rcc.o
    0x08000c78   0x08000c78   0x00000020   Code   RO         1054    i.HAL_RCC_GetPCLK2Freq  stm32f1xx_hal_rcc.o
    0x08000c98   0x08000c98   0x0000006c   Code   RO         1055    i.HAL_RCC_GetSysClockFreq  stm32f1xx_hal_rcc.o
    0x08000d04   0x08000d04   0x00000320   Code   RO         1058    i.HAL_RCC_OscConfig  stm32f1xx_hal_rcc.o
    0x08001024   0x08001024   0x00000028   Code   RO         1357    i.HAL_SYSTICK_Config  stm32f1xx_hal_cortex.o
    0x0800104c   0x0800104c   0x00000002   Code   RO         2572    i.HAL_TIMEx_BreakCallback  stm32f1xx_hal_tim_ex.o
    0x0800104e   0x0800104e   0x00000002   Code   RO         2573    i.HAL_TIMEx_CommutCallback  stm32f1xx_hal_tim_ex.o
    0x08001050   0x08001050   0x00000054   Code   RO         2575    i.HAL_TIMEx_ConfigBreakDeadTime  stm32f1xx_hal_tim_ex.o
    0x080010a4   0x080010a4   0x00000060   Code   RO         2591    i.HAL_TIMEx_MasterConfigSynchronization  stm32f1xx_hal_tim_ex.o
    0x08001104   0x08001104   0x0000005a   Code   RO         1868    i.HAL_TIM_Base_Init  stm32f1xx_hal_tim.o
    0x0800115e   0x0800115e   0x00000002   PAD
    0x08001160   0x08001160   0x00000050   Code   RO          322    i.HAL_TIM_Base_MspInit  tim.o
    0x080011b0   0x080011b0   0x00000050   Code   RO         1873    i.HAL_TIM_Base_Start_IT  stm32f1xx_hal_tim.o
    0x08001200   0x08001200   0x000000d6   Code   RO         1877    i.HAL_TIM_ConfigClockSource  stm32f1xx_hal_tim.o
    0x080012d6   0x080012d6   0x000000a4   Code   RO         1889    i.HAL_TIM_Encoder_Init  stm32f1xx_hal_tim.o
    0x0800137a   0x0800137a   0x00000002   PAD
    0x0800137c   0x0800137c   0x00000064   Code   RO          324    i.HAL_TIM_Encoder_MspInit  tim.o
    0x080013e0   0x080013e0   0x0000008e   Code   RO         1892    i.HAL_TIM_Encoder_Start  stm32f1xx_hal_tim.o
    0x0800146e   0x0800146e   0x00000002   Code   RO         1902    i.HAL_TIM_IC_CaptureCallback  stm32f1xx_hal_tim.o
    0x08001470   0x08001470   0x00000166   Code   RO         1916    i.HAL_TIM_IRQHandler  stm32f1xx_hal_tim.o
    0x080015d6   0x080015d6   0x00000002   PAD
    0x080015d8   0x080015d8   0x0000004c   Code   RO          325    i.HAL_TIM_MspPostInit  tim.o
    0x08001624   0x08001624   0x00000002   Code   RO         1919    i.HAL_TIM_OC_DelayElapsedCallback  stm32f1xx_hal_tim.o
    0x08001626   0x08001626   0x000000c6   Code   RO         1940    i.HAL_TIM_PWM_ConfigChannel  stm32f1xx_hal_tim.o
    0x080016ec   0x080016ec   0x0000005a   Code   RO         1943    i.HAL_TIM_PWM_Init  stm32f1xx_hal_tim.o
    0x08001746   0x08001746   0x00000002   Code   RO         1945    i.HAL_TIM_PWM_MspInit  stm32f1xx_hal_tim.o
    0x08001748   0x08001748   0x00000002   Code   RO         1946    i.HAL_TIM_PWM_PulseFinishedCallback  stm32f1xx_hal_tim.o
    0x0800174a   0x0800174a   0x00000002   PAD
    0x0800174c   0x0800174c   0x00000094   Code   RO         1948    i.HAL_TIM_PWM_Start  stm32f1xx_hal_tim.o
    0x080017e0   0x080017e0   0x00000070   Code   RO         1951    i.HAL_TIM_PWM_Stop  stm32f1xx_hal_tim.o
    0x08001850   0x08001850   0x0000003c   Code   RO           14    i.HAL_TIM_PeriodElapsedCallback  main.o
    0x0800188c   0x0800188c   0x00000002   Code   RO         1959    i.HAL_TIM_TriggerCallback  stm32f1xx_hal_tim.o
    0x0800188e   0x0800188e   0x00000002   Code   RO         2850    i.HAL_UARTEx_RxEventCallback  stm32f1xx_hal_uart.o
    0x08001890   0x08001890   0x00000002   Code   RO         2864    i.HAL_UART_ErrorCallback  stm32f1xx_hal_uart.o
    0x08001892   0x08001892   0x00000002   PAD
    0x08001894   0x08001894   0x0000020c   Code   RO         2867    i.HAL_UART_IRQHandler  stm32f1xx_hal_uart.o
    0x08001aa0   0x08001aa0   0x00000062   Code   RO         2868    i.HAL_UART_Init     stm32f1xx_hal_uart.o
    0x08001b02   0x08001b02   0x00000002   PAD
    0x08001b04   0x08001b04   0x00000080   Code   RO          394    i.HAL_UART_MspInit  usart.o
    0x08001b84   0x08001b84   0x00000002   Code   RO         2874    i.HAL_UART_RxCpltCallback  stm32f1xx_hal_uart.o
    0x08001b86   0x08001b86   0x00000002   PAD
    0x08001b88   0x08001b88   0x000000b2   Code   RO         2876    i.HAL_UART_Transmit  stm32f1xx_hal_uart.o
    0x08001c3a   0x08001c3a   0x00000002   Code   RO         2879    i.HAL_UART_TxCpltCallback  stm32f1xx_hal_uart.o
    0x08001c3c   0x08001c3c   0x00000002   Code   RO          438    i.HardFault_Handler  stm32f1xx_it.o
    0x08001c3e   0x08001c3e   0x0000000c   Code   RO         3465    i.I2C_Delay         iic.o
    0x08001c4a   0x08001c4a   0x00000002   PAD
    0x08001c4c   0x08001c4c   0x00000050   Code   RO         3466    i.I2C_InitGPIO      iic.o
    0x08001c9c   0x08001c9c   0x0000006c   Code   RO         3469    i.I2C_SendByte      iic.o
    0x08001d08   0x08001d08   0x00000048   Code   RO         3470    i.I2C_Start         iic.o
    0x08001d50   0x08001d50   0x00000034   Code   RO         3471    i.I2C_Stop          iic.o
    0x08001d84   0x08001d84   0x00000050   Code   RO         3472    i.I2C_WaitAck       iic.o
    0x08001dd4   0x08001dd4   0x00000074   Code   RO         3574    i.Key_scan          key.o
    0x08001e48   0x08001e48   0x00000090   Code   RO          251    i.MX_ADC1_Init      adc.o
    0x08001ed8   0x08001ed8   0x000000e8   Code   RO          225    i.MX_GPIO_Init      gpio.o
    0x08001fc0   0x08001fc0   0x0000002c   Code   RO          291    i.MX_IWDG_Init      iwdg.o
    0x08001fec   0x08001fec   0x000000f0   Code   RO          326    i.MX_TIM1_Init      tim.o
    0x080020dc   0x080020dc   0x00000068   Code   RO          327    i.MX_TIM2_Init      tim.o
    0x08002144   0x08002144   0x0000006c   Code   RO          328    i.MX_TIM3_Init      tim.o
    0x080021b0   0x080021b0   0x00000038   Code   RO          395    i.MX_USART2_UART_Init  usart.o
    0x080021e8   0x080021e8   0x00000002   Code   RO          439    i.MemManage_Handler  stm32f1xx_it.o
    0x080021ea   0x080021ea   0x00000002   PAD
    0x080021ec   0x080021ec   0x0000001c   Code   RO         3852    i.Motor_Start       motor.o
    0x08002208   0x08002208   0x00000050   Code   RO         3853    i.Motor_Stop        motor.o
    0x08002258   0x08002258   0x0000006c   Code   RO         3234    i.Mune              user_function.o
    0x080022c4   0x080022c4   0x00000002   Code   RO          440    i.NMI_Handler       stm32f1xx_it.o
    0x080022c6   0x080022c6   0x00000006   Code   RO         3338    i.OLED_CLS          iic_oled.o
    0x080022cc   0x080022cc   0x0000003c   Code   RO         3598    i.OLED_Clear_Arrowhead  menu.o
    0x08002308   0x08002308   0x0000003e   Code   RO         3339    i.OLED_DrawBMP      iic_oled.o
    0x08002346   0x08002346   0x00000002   PAD
    0x08002348   0x08002348   0x00000038   Code   RO         3340    i.OLED_Fill         iic_oled.o
    0x08002380   0x08002380   0x000000b8   Code   RO         3341    i.OLED_Init         iic_oled.o
    0x08002438   0x08002438   0x00000026   Code   RO         3344    i.OLED_SetPos       iic_oled.o
    0x0800245e   0x0800245e   0x00000002   PAD
    0x08002460   0x08002460   0x00000088   Code   RO         3346    i.OLED_ShowChar     iic_oled.o
    0x080024e8   0x080024e8   0x0000006a   Code   RO         3347    i.OLED_ShowNum      iic_oled.o
    0x08002552   0x08002552   0x00000002   PAD
    0x08002554   0x08002554   0x000000d8   Code   RO         3348    i.OLED_ShowStr      iic_oled.o
    0x0800262c   0x0800262c   0x00000002   Code   RO          441    i.PendSV_Handler    stm32f1xx_it.o
    0x0800262e   0x0800262e   0x00000002   Code   RO          442    i.SVC_Handler       stm32f1xx_it.o
    0x08002630   0x08002630   0x00000064   Code   RO         3294    i.Schedule          user_scheduler.o
    0x08002694   0x08002694   0x00000128   Code   RO         3854    i.Six_Step_Phase    motor.o
    0x080027bc   0x080027bc   0x00000004   Code   RO          443    i.SysTick_Handler   stm32f1xx_it.o
    0x080027c0   0x080027c0   0x00000084   Code   RO           15    i.Sys_init          main.o
    0x08002844   0x08002844   0x00000080   Code   RO           16    i.SystemClock_Config  main.o
    0x080028c4   0x080028c4   0x00000002   Code   RO         3197    i.SystemInit        system_stm32f1xx.o
    0x080028c6   0x080028c6   0x00000002   PAD
    0x080028c8   0x080028c8   0x0000000c   Code   RO          444    i.TIM2_IRQHandler   stm32f1xx_it.o
    0x080028d4   0x080028d4   0x0000000c   Code   RO          445    i.TIM3_IRQHandler   stm32f1xx_it.o
    0x080028e0   0x080028e0   0x0000005c   Code   RO         1961    i.TIM_Base_SetConfig  stm32f1xx_hal_tim.o
    0x0800293c   0x0800293c   0x0000001a   Code   RO         1962    i.TIM_CCxChannelCmd  stm32f1xx_hal_tim.o
    0x08002956   0x08002956   0x00000014   Code   RO         1972    i.TIM_ETR_SetConfig  stm32f1xx_hal_tim.o
    0x0800296a   0x0800296a   0x00000010   Code   RO         1973    i.TIM_ITRx_SetConfig  stm32f1xx_hal_tim.o
    0x0800297a   0x0800297a   0x00000002   PAD
    0x0800297c   0x0800297c   0x00000050   Code   RO         1974    i.TIM_OC1_SetConfig  stm32f1xx_hal_tim.o
    0x080029cc   0x080029cc   0x00000058   Code   RO         1975    i.TIM_OC2_SetConfig  stm32f1xx_hal_tim.o
    0x08002a24   0x08002a24   0x00000058   Code   RO         1976    i.TIM_OC3_SetConfig  stm32f1xx_hal_tim.o
    0x08002a7c   0x08002a7c   0x00000044   Code   RO         1977    i.TIM_OC4_SetConfig  stm32f1xx_hal_tim.o
    0x08002ac0   0x08002ac0   0x00000022   Code   RO         1979    i.TIM_TI1_ConfigInputStage  stm32f1xx_hal_tim.o
    0x08002ae2   0x08002ae2   0x00000024   Code   RO         1981    i.TIM_TI2_ConfigInputStage  stm32f1xx_hal_tim.o
    0x08002b06   0x08002b06   0x00000010   Code   RO         2881    i.UART_DMAAbortOnError  stm32f1xx_hal_uart.o
    0x08002b16   0x08002b16   0x00000030   Code   RO         2891    i.UART_EndRxTransfer  stm32f1xx_hal_uart.o
    0x08002b46   0x08002b46   0x000000b6   Code   RO         2893    i.UART_Receive_IT   stm32f1xx_hal_uart.o
    0x08002bfc   0x08002bfc   0x000000b8   Code   RO         2894    i.UART_SetConfig    stm32f1xx_hal_uart.o
    0x08002cb4   0x08002cb4   0x00000064   Code   RO         2897    i.UART_WaitOnFlagUntilTimeout  stm32f1xx_hal_uart.o
    0x08002d18   0x08002d18   0x0000000c   Code   RO          446    i.USART2_IRQHandler  stm32f1xx_it.o
    0x08002d24   0x08002d24   0x00000002   Code   RO          447    i.UsageFault_Handler  stm32f1xx_it.o
    0x08002d26   0x08002d26   0x0000000a   Code   RO         3349    i.WriteCmd          iic_oled.o
    0x08002d30   0x08002d30   0x0000000a   Code   RO         3350    i.WriteDat          iic_oled.o
    0x08002d3a   0x08002d3a   0x00000002   PAD
    0x08002d3c   0x08002d3c   0x00000010   Code   RO         3904    i.__0printf$bare    mc_w.l(printfb.o)
    0x08002d4c   0x08002d4c   0x00000020   Code   RO         1359    i.__NVIC_SetPriority  stm32f1xx_hal_cortex.o
    0x08002d6c   0x08002d6c   0x0000000e   Code   RO         4205    i.__scatterload_copy  mc_w.l(handlers.o)
    0x08002d7a   0x08002d7a   0x00000002   Code   RO         4206    i.__scatterload_null  mc_w.l(handlers.o)
    0x08002d7c   0x08002d7c   0x0000000e   Code   RO         4207    i.__scatterload_zeroinit  mc_w.l(handlers.o)
    0x08002d8a   0x08002d8a   0x00000022   Code   RO         3911    i._printf_core      mc_w.l(printfb.o)
    0x08002dac   0x08002dac   0x00000034   Code   RO         3235    i.display_UI        user_function.o
    0x08002de0   0x08002de0   0x0000001c   Code   RO           17    i.fputc             main.o
    0x08002dfc   0x08002dfc   0x00000018   Code   RO         3599    i.fun_0             menu.o
    0x08002e14   0x08002e14   0x00000084   Code   RO         3600    i.fun_a             menu.o
    0x08002e98   0x08002e98   0x00000070   Code   RO         3601    i.fun_a1            menu.o
    0x08002f08   0x08002f08   0x00000068   Code   RO         3602    i.fun_a11           menu.o
    0x08002f70   0x08002f70   0x00000060   Code   RO         3603    i.fun_a111          menu.o
    0x08002fd0   0x08002fd0   0x00000068   Code   RO         3604    i.fun_a12           menu.o
    0x08003038   0x08003038   0x00000060   Code   RO         3605    i.fun_a121          menu.o
    0x08003098   0x08003098   0x00000070   Code   RO         3606    i.fun_a2            menu.o
    0x08003108   0x08003108   0x0000006c   Code   RO         3607    i.fun_a21           menu.o
    0x08003174   0x08003174   0x00000070   Code   RO         3608    i.fun_a211          menu.o
    0x080031e4   0x080031e4   0x0000006c   Code   RO         3609    i.fun_a22           menu.o
    0x08003250   0x08003250   0x00000070   Code   RO         3610    i.fun_a221          menu.o
    0x080032c0   0x080032c0   0x00000084   Code   RO         3611    i.fun_b             menu.o
    0x08003344   0x08003344   0x00000040   Code   RO         3612    i.fun_b1            menu.o
    0x08003384   0x08003384   0x00000034   Code   RO         3613    i.fun_b2            menu.o
    0x080033b8   0x080033b8   0x00000040   Code   RO         3614    i.fun_b3            menu.o
    0x080033f8   0x080033f8   0x00000084   Code   RO         3615    i.fun_c             menu.o
    0x0800347c   0x0800347c   0x00000080   Code   RO         3616    i.fun_c1            menu.o
    0x080034fc   0x080034fc   0x0000006c   Code   RO         3617    i.fun_c11           menu.o
    0x08003568   0x08003568   0x00000040   Code   RO         3618    i.fun_c111          menu.o
    0x080035a8   0x080035a8   0x00000034   Code   RO         3619    i.fun_c112          menu.o
    0x080035dc   0x080035dc   0x00000040   Code   RO         3620    i.fun_c113          menu.o
    0x0800361c   0x0800361c   0x0000006c   Code   RO         3621    i.fun_c12           menu.o
    0x08003688   0x08003688   0x0000006c   Code   RO         3622    i.fun_c121          menu.o
    0x080036f4   0x080036f4   0x0000006c   Code   RO         3623    i.fun_c122          menu.o
    0x08003760   0x08003760   0x00000080   Code   RO         3624    i.fun_c2            menu.o
    0x080037e0   0x080037e0   0x00000058   Code   RO         3625    i.fun_c21           menu.o
    0x08003838   0x08003838   0x00000058   Code   RO         3626    i.fun_c22           menu.o
    0x08003890   0x08003890   0x00000048   Code   RO         3627    i.fun_c3            menu.o
    0x080038d8   0x080038d8   0x00000004   Code   RO         3628    i.fun_c31           menu.o
    0x080038dc   0x080038dc   0x00000084   Code   RO         3629    i.fun_d             menu.o
    0x08003960   0x08003960   0x00000088   Code   RO         3630    i.fun_d1            menu.o
    0x080039e8   0x080039e8   0x00000038   Code   RO         3819    i.get_hall_state    hall.o
    0x08003a20   0x08003a20   0x00000038   Code   RO           18    i.main              main.o
    0x08003a58   0x08003a58   0x00000010   Code   RO         3351    i.mypow             iic_oled.o
    0x08003a68   0x08003a68   0x00000032   Code   RO         3474    i.write_i2c         iic.o
    0x08003a9a   0x08003a9a   0x00000010   Data   RO         3198    .constdata          system_stm32f1xx.o
    0x08003aaa   0x08003aaa   0x00000008   Data   RO         3199    .constdata          system_stm32f1xx.o
    0x08003ab2   0x08003ab2   0x00000ad8   Data   RO         3355    .constdata          iic_oled.o
    0x0800458a   0x0800458a   0x00000002   PAD
    0x0800458c   0x0800458c   0x00000020   Data   RO         4203    Region$$Table       anon$$obj.o


    Execution Region RW_IRAM1 (Exec base: 0x20000000, Load base: 0x080045ac, Size: 0x00000b10, Max: 0x0000c000, ABSOLUTE, COMPRESSED[0x000002b4])

    Exec Addr    Load Addr    Size         Type   Attr      Idx    E Section Name        Object

    0x20000000   COMPRESSED   0x00000401   Data   RW           19    .data               main.o
    0x20000401   COMPRESSED   0x00000003   PAD
    0x20000404   COMPRESSED   0x0000000c   Data   RW          896    .data               stm32f1xx_hal.o
    0x20000410   COMPRESSED   0x00000004   Data   RW         3200    .data               system_stm32f1xx.o
    0x20000414   COMPRESSED   0x00000008   Data   RW         3236    .data               user_function.o
    0x2000041c   COMPRESSED   0x00000001   Data   RW         3237    .data               user_function.o
    0x2000041d   COMPRESSED   0x00000003   PAD
    0x20000420   COMPRESSED   0x00000008   Data   RW         3295    .data               user_scheduler.o
    0x20000428   COMPRESSED   0x00000180   Data   RW         3631    .data               menu.o
    0x200005a8   COMPRESSED   0x00000005   Data   RW         3855    .data               motor.o
    0x200005ad   COMPRESSED   0x00000003   PAD
    0x200005b0   COMPRESSED   0x00000004   Data   RW         4179    .data               mc_w.l(stdout.o)
    0x200005b4        -       0x00000030   Zero   RW          252    .bss                adc.o
    0x200005e4        -       0x0000000c   Zero   RW          292    .bss                iwdg.o
    0x200005f0        -       0x000000d8   Zero   RW          329    .bss                tim.o
    0x200006c8        -       0x00000044   Zero   RW          396    .bss                usart.o
    0x2000070c   COMPRESSED   0x00000004   PAD
    0x20000710        -       0x00000400   Zero   RW            1    STACK               startup_stm32f103x6.o


==============================================================================

Image component sizes


      Code (inc. data)   RO Data    RW Data    ZI Data      Debug   Object Name

       264         26          0          0         48       1757   adc.o
       232         20          0          0          0        999   gpio.o
       128         20          0          0          0       1440   hall.o
       454         50          0          0          0       3923   iic.o
       840         18       2776          0          0       7862   iic_oled.o
        44          8          0          0         12        711   iwdg.o
       116          8          0          0          0        579   key.o
       408         86          0       1025          0     440018   main.o
      3112       1418          0        384          0      15502   menu.o
       436         48          0          5          0       2905   motor.o
        36          8        236          0       1024        804   startup_stm32f103x6.o
       164         28          0         12          0       5581   stm32f1xx_hal.o
       622         24          0          0          0       3308   stm32f1xx_hal_adc.o
       234         24          0          0          0      29530   stm32f1xx_hal_cortex.o
       222          4          0          0          0       1775   stm32f1xx_hal_dma.o
       508         36          0          0          0       4719   stm32f1xx_hal_gpio.o
       102          0          0          0          0       1839   stm32f1xx_hal_iwdg.o
        60          8          0          0          0        874   stm32f1xx_hal_msp.o
      1272        100          0          0          0       5204   stm32f1xx_hal_rcc.o
       236         12          0          0          0       1388   stm32f1xx_hal_rcc_ex.o
      2154         52          0          0          0      18528   stm32f1xx_hal_tim.o
       184         10          0          0          0       3165   stm32f1xx_hal_tim_ex.o
      1338         10          0          0          0       9692   stm32f1xx_hal_uart.o
        86         18          0          0          0       5685   stm32f1xx_it.o
         2          0         24          4          0       1119   system_stm32f1xx.o
       708         56          0          0        216       4392   tim.o
       184         22          0          0         68       1698   usart.o
       160         18          0          9          0       2311   user_function.o
       160         18          0          8          0       2442   user_scheduler.o

    ----------------------------------------------------------------------
     14502       2150       3070       1456       1372     579750   Object Totals
         0          0         32          0          0          0   (incl. Generated)
        36          0          2          9          4          0   (incl. Padding)

    ----------------------------------------------------------------------

      Code (inc. data)   RO Data    RW Data    ZI Data      Debug   Library Member Name

        86          0          0          0          0          0   __dczerorl2.o
         0          0          0          0          0          0   entry.o
         0          0          0          0          0          0   entry10a.o
         0          0          0          0          0          0   entry11a.o
         4          0          0          0          0          0   entry12b.o
         8          4          0          0          0          0   entry2.o
         4          0          0          0          0          0   entry5.o
         0          0          0          0          0          0   entry7b.o
         0          0          0          0          0          0   entry8b.o
         8          4          0          0          0          0   entry9a.o
        30          0          0          0          0          0   handlers.o
        36          8          0          0          0         68   init.o
        36          0          0          0          0        108   memseta.o
        50          8          0          0          0        152   printfb.o
         0          0          0          4          0          0   stdout.o

    ----------------------------------------------------------------------
       264         24          0          4          0        328   Library Totals
         2          0          0          0          0          0   (incl. Padding)

    ----------------------------------------------------------------------

      Code (inc. data)   RO Data    RW Data    ZI Data      Debug   Library Name

       262         24          0          4          0        328   mc_w.l

    ----------------------------------------------------------------------
       264         24          0          4          0        328   Library Totals

    ----------------------------------------------------------------------

==============================================================================


      Code (inc. data)   RO Data    RW Data    ZI Data      Debug   

     14766       2174       3070       1460       1372     571886   Grand Totals
     14766       2174       3070        692       1372     571886   ELF Image Totals (compressed)
     14766       2174       3070        692          0          0   ROM Totals

==============================================================================

    Total RO  Size (Code + RO Data)                17836 (  17.42kB)
    Total RW  Size (RW Data + ZI Data)              2832 (   2.77kB)
    Total ROM Size (Code + RO Data + RW Data)      18528 (  18.09kB)

==============================================================================

