:020000040800F2
:10000000100B002005010008C52200083D1C000857
:10001000E92100081F020008252D0008000000004B
:100020000000000000000000000000002F26000873
:1000300041020008000000002D260008BD2700082E
:100040001F0100081F0100081F0100081F01000810
:100050001F0100081F0100081F0100081F01000800
:100060001F0100081F0100081F0100081F010008F0
:100070001F0100081F0100081F0100081F010008E0
:100080001F0100081F0100081F0100081F010008D0
:100090001F0100081F0100081F0100081F010008C0
:1000A0001F0100081F0100081F0100081F010008B0
:1000B000C9280008D5280008000000001F0100081A
:1000C0001F01000800000000000000001F010008E0
:1000D000000000001F010008192D000800000000AA
:1000E000430200081F0100081F010008DFF810D0BC
:1000F00000F02CF800480047213A0008AFF30080D8
:10010000100B00200648804706480047FEE7FEE740
:10011000FEE7FEE7FEE7FEE7FEE7FEE7FEE7FEE7B7
:10012000C5280008ED000008D2B201E000F8012B5C
:10013000491EFBD270470022F6E710B513460A4667
:1001400004461946FFF7F0FF204610BD064C074D48
:1001500006E0E06840F0010394E807009847103497
:10016000AC42F6D3FFF7C6FF8C450008AC4500084B
:1001700070B58C1810F8015B15F0070301D110F869
:10018000013B2A1106D110F8012B03E010F8016B96
:1001900001F8016B5B1EF9D12B0705D40023521E19
:1001A0000DD401F8013BFAE710F8013BCB1A921C81
:1001B00003E013F8015B01F8015B521EF9D5A1427F
:1001C000D8D3002070BD000070B504460068816877
:1001D000C943C90717D1816821F00101816000F08E
:1001E0004BFB05460AE000BF00F046FB401B02281F
:1001F00004D920688068C043C00706D020688068A2
:10020000C043C007F0D0002070BDA06A40F01000CD
:10021000A062E06A40F00100E062012070BDFEE7EC
:1002200040F2DC5148436421B0FBF1F0034980B255
:100230000860091D0860091D08607047342C0140E2
:10024000704710B54FF4005000F018FA4FF480409A
:1002500000F014FABDE810404FF4004000F00EBA70
:1002600072B6FEE770B504460078002510B125701F
:1002700001F0F2FFA07820B1A5702021064800F01F
:10028000EEFA6078002805D06570BDE8704003483C
:1002900000F025BB70BD0000000C0140E40500200B
:1002A000F8B50024009490F824202546012A12D0A5
:1002B000012280F824204A681F23072A0DD20668ED
:1002C000776B521E02EB820293409F430B68934070
:1002D0001F43776319E00220F8BD06680D2A0AD291
:1002E000376BD21F02EB820293409F430B6893400F
:1002F0001F43376309E0F76A0D3A02EB820293402D
:100300009F430B6893401F43F7620A680723066800
:100310000A2A0AD3F7680A3A02EB420293409F4343
:100320008B6893401F43F76008E0376902EB420295
:1003300093409F438B6893401F4337610A68102A9C
:1003400001D0112A20D1124B02689A4217D193682A
:100350001B0219D4936843F40003936009681029C1
:1003600012D10C490C4A0968B1FBF2F101EB810191
:10037000490000E0491E00910029FBD104E0816A98
:1003800041F020018162012480F824502046F8BD0C
:10039000002401401004002040420F002DE9F041EC
:1003A0004FF0000704003D467ED0A06A002628B921
:1003B000E66284F82460204600F07EF82046FFF7CD
:1003C00003FFA16AC90600D420B1A06A40F0100062
:1003D000A06269E0A16A21F4885141F00201A162A2
:1003E0006268E169237B0A4347EA43010A43A16843
:1003F0004FF48077B94209D0012907D05FF000019E
:1004000094F814C0BCF1010F02D00AE03946F7E7B6
:10041000F3B1A36A43F02003A362E36A43F001034C
:10042000E3622368D3F804C02CF4694C4CEA010C55
:10043000C3F804C021688B68DFF870C003EA0C03BE
:1004400013438B60A168B9420BD0012909D00CE09D
:10045000DFF85CC0A3690CEB43330B4343F400614A
:10046000DFE7218A0D05A5F580152168CB6A23F405
:1004700070032B43CB62216889680E4B194091426F
:1004800008D1E662A16A21F0020141F00101A162F6
:10049000BDE8F081A06A20F0020040F01000A062E8
:1004A000E06A40F00100E0620120F1E7FDF7E1FFC2
:1004B00000E0FFFFFE0E1FFF10B586B00021009187
:1004C00001910291039100681549884225D1154890
:1004D000816941F400718161816901F400710491C5
:1004E000816941F004018161816901F00401049195
:1004F000816941F0080181618069032400F00800EE
:100500000490009469460194074800F0C3F80094F1
:1005100069460648019400F0BDF806B010BD000021
:10052000002401400010024000080140000C01407E
:1005300010B590F821100022022905D00421816312
:1005400080F82020012010BD01680B6823F00E0305
:100550000B6001680B6823F001030B6090F84030DA
:10056000C46B012101FA03F3636080F8211080F865
:100570002020104610BD000010B590F82110002476
:10058000022903D00421816301243DE001680A6847
:1005900022F00E020A6001680A6822F001020A6075
:1005A0001A4A0168914201D1012121E0174A14320F
:1005B000914201D110211BE0144A2832914201D10D
:1005C000891515E0114A3C32914201D189140FE09E
:1005D0000E4A5032914202D14FF4803108E00B4A6A
:1005E0006432914202D14FF4801101E04FF08071EA
:1005F000064A083A5160012180F82110002180F854
:100600002010416B01B18847204610BD0800024010
:1006100070B5044600F030F90546601C02D004486D
:100620000078044400F028F9401BA042FAD370BDC2
:100630000404002070B50E4D00221021284600F061
:1006400016F90C4CE07801280AD10B480078A0700C
:10065000FFF7E6FD03F0C8F92071217802F01AF8DF
:100660002846BDE870400122102100F000B90000CA
:10067000000C0140A80500201C040020044910B50E
:100680000A68024202D00860FFF7D4FF10BD0000E4
:10069000140401402DE9F84FDFF89C91002409F182
:1006A000040A0AF1040B23460F270BF1040EBBE0EA
:1006B0000125A5402A40AA4276D1DFF880C14E68C4
:1006C000A6EB0C0866452BD00DDC032E34D005DCE0
:1006D00036B3012E19D0022E2FD11BE0112E16D0C9
:1006E000122E2AD119E0B8F5881F19D006DCB8F50A
:1006F000803F15D0B8F5801F1FD111E0B8F5001F5D
:100700000ED0B8F5041F18D10AE0CB6815E0CB680D
:100710001B1D12E0CB6808330FE0CB680C330CE0F4
:100720008B682BB1012B4FF0080303D0456104E027
:10073000042302E0056100E00023FF2A01D80646F9
:1007400001E000F104064FEA840501D9A5F1200576
:10075000D6F8008007FA05FC28EA0C0803FA05F52C
:1007600048EA0508C6F800804D68ED005BD5344DB9
:10077000AE6946F00106AE61AD6924F0030605F0EE
:10078000010500952F4D06EB050CDCF80850A60777
:10079000360F07FA06F825EA0805DFF8AC80404571
:1007A00003D14FF0000810E03DE0DFF8A0804045A5
:1007B00002D14FF0010808E0DFF89480404502D1F3
:1007C0004FF0020801E04FF0030808FA06F848EA83
:1007D0000508CCF808804D68D9F80060ED034D4657
:1007E00001D5164300E096432E604D68DAF80060AC
:1007F000AD03554601D5164300E096432E604D6883
:10080000DBF80060ED025D4601D5164300E096433B
:100810002E604D68DEF80060AD02754601D51643C6
:1008200000E096432E60641C0A6832FA04F57FF4F7
:100830003FAFBDE8F88F0000000401400000111038
:10084000001002400000014000080140000C01407F
:10085000001001408068084000D001207047C26845
:1008600021EA02030A4043EA0241016170470AB1EA
:10087000016170470904FBE7014880687047000088
:100880000404002070B5040011D021684CF6CC405F
:100890000860216845F255500860D4E900014160C4
:1008A0002168A0688860FFF7E7FF05460DE001209A
:1008B00070BD00BFFFF7E0FF401B272805D9206867
:1008C000C068800701D0032070BD2068C068800721
:1008D000F0D121684AF6AA200860002070BD0068A7
:1008E0004AF6AA2101600020704700000248816892
:1008F000027811448160704704040020074810B555
:10090000016841F010010160032000F075F80F202C
:1009100000F006F800F024F8002010BD002002408E
:1009200070B50D4D04464FF47A712878B1FBF0F0A4
:100930000A490968B1FBF0F000F074FB48B9102CCB
:1009400007D200222146501E00F036F800206C60CD
:1009500070BD012070BD00000404002010040020C0
:100960000C4808B5816941F001018161816901F09C
:1009700001010091C16941F08051C161C06900F07D
:10098000805000900448416821F0E06141F000711E
:10099000416008BD0010024000000140002809DB52
:1009A00000F01F02012191404009800000F1E02089
:1009B000C0F8001170470000F0B40E4B1B680C46E5
:1009C000C3F30223C3F10705042D00D90425191D23
:1009D000072901D2002300E0DB1E012606FA05F1FB
:1009E000491E214099409E40761E16403143F0BC7E
:1009F00002F0ACB90CED00E0064900F0070208680F
:100A00004FF6FF03184040EA0220034A10430860F3
:100A1000704700000CED00E00000FA05BFF34F8FB7
:100A200005480168054A01F4E06111430160BFF324
:100A30004F8F00BFFDE700000CED00E00400FA0559
:100A40002DE9F84305460078354CC00754D0E069DD
:100A50000026C00008D4E06940F08050E061E06901
:100A6000012600F0805000902E480168C90512D47C
:100A70000168804641F480710160FFF7FDFE074682
:100A800005E000BFFFF7F8FEC01B642823D8D8F8A4
:100A90000000C005F6D5206A10F4407021D0A98866
:100AA00001F4407181421CD0206A1F49012220F4C8
:100AB00040700A6000220A602062C00711D0FFF770
:100AC000DBFE074641F2883808E000BFFFF7D4FE9E
:100AD000C11B414502D90320BDE8F883206A800785
:100AE000F4D5206A696820F44070084320621EB182
:100AF000E06920F08050E0612878800705D56068C3
:100B0000A96820F44040084360602878C00605D5F5
:100B10006068E96820F48000084360600020DBE73B
:100B20000010024000700040400442422DE9F047AE
:100B30000F46050061D0434E306800F00700B84210
:100B400009D2306820F0070038433060306800F088
:100B50000700B84251D128683B4C810712D54007A5
:100B600003D5606840F4E06060602878000703D532
:100B7000606840F4605060606068A96820F0F00030
:100B8000084360602878C00728D06868012810D022
:100B90002168022810D0890700292EDA616821F027
:100BA000030101436160FFF767FE804641F2883927
:100BB0000DE021688903EFE78901EDE7FFF75CFEAF
:100BC000A0EB0801494502D90320BDE8F087606821
:100BD000696800F00C00B0EB810FEFD1306800F0D5
:100BE0000700B8420BD9306820F007003843306066
:100BF000306800F00700B84201D00120E5E728780E
:100C0000400705D56068E96820F4E060084360604B
:100C10002878000706D56068296920F4605040EA0A
:100C2000C100606000F038F86168084AC1F3031140
:100C3000515CC8400649086006480068FFF770FE2E
:100C40000020C2E700200240001002409A3A00084B
:100C50001004002008040020044805490068496881
:100C6000044AC1F30221515CC840704710040020BF
:100C700000100240AA3A0008044805490068496883
:100C8000044AC1F3C221515CC840704710040020DF
:100C900000100240AA3A000812A185B00FC98DE8E1
:100CA0000F0014A0144A006804905168134801F022
:100CB0000C03042B10D0082B0ED1C1F38343C903BE
:100CC0001DF803000AD5516804AAC1F34041515CE4
:100CD0000A4A5043B0FBF1F005B070470849484359
:100CE000FAE7000002030405060708090A0B0C0DC9
:100CF0000E0F1010010200000010024000127A00D6
:100D000000093D002DE9F84F040070D02078C04D57
:100D1000C00749D06868C0F38100012807D068681F
:100D2000C0F38100022809D16868C00306D528688D
:100D3000800339D560680028E7D035E06068B0F5F9
:100D4000803F0BD010B1B0F5A02F11D0286820F44F
:100D500080302860286820F4802002E0286840F471
:100D600080302860606890B1FFF786FD06460AE093
:100D7000286840F480202860F0E700BFFFF77CFD82
:100D8000801B642873D828688003F7D50CE0FFF730
:100D900073FD064605E000BFFFF76EFD801B64286B
:100DA000F0D828688003F7D420789A4E80074FF057
:100DB00001094FF0000839D5686810F00C0F07D012
:100DC0006868C0F38100022809D16868C00306D4AE
:100DD0002868800714D52069012808D110E020690F
:100DE000B0B1C6F80090FFF747FD074605E00AE1FD
:100DF000FFF742FDC01B0228C4D828688007F7D53A
:100E00002868616920F0F80040EAC10028600DE020
:100E1000C6F80080FFF730FD074604E0FFF72CFD21
:100E2000C01B022823D828688007F7D42078000741
:100E30002CD57948A169D9B1C0F80090FFF71CFD05
:100E4000074604E0FFF718FDC01B02280FD8686AA8
:100E50008007F7D571484FF4FA510068B0FBF1F004
:100E6000009000BF0098411E0091FAD20EE080E091
:100E7000C0F80080FFF700FD074604E0FFF7FCFC28
:100E8000C01B022875D8686A8007F7D4207840070D
:100E900060D5E8690027C00008D4E86940F08050B8
:100EA000E861E869012700F0805000905C48016823
:100EB000C90513D40168834641F480710160FFF7CE
:100EC000DBFC824606E000BFFFF7D6FCA0EB0A0081
:100ED00064284ED8DBF80000C005F5D5E06801288D
:100EE0000AD008B1052813D0286A20F00100286232
:100EF000286A20F0040002E0286A40F0010028621D
:100F0000E06841F2883B98B1FFF7B6FC82460BE0FF
:100F1000286A40F004002862EEE700BFFFF7ACFC4F
:100F2000A0EB0A0159455AD8286A8007F6D50CE08B
:100F3000FFF7A2FC824605E0FFF79EFCA0EB0A014A
:100F400059454CD8286A8007F6D41FB1E86920F0CB
:100F50008050E861E06988B36968C1F381010229C2
:100F600044D00228C6F8608004D0FFF785FC044610
:100F700038E034E0FFF780FC074604E0FFF77CFC34
:100F8000C01B02282BD828688001F7D4206AB0F54E
:100F9000803F05D16868A16820F40030084368608C
:100FA000D4E908010843696821F4741108436860B2
:100FB000C6F86090FFF760FC044606E025E000BF3D
:100FC000FFF75AFC001B022809D828688001F7D5D2
:100FD0001BE000BFFFF750FC001B022802D90320D2
:100FE000BDE8F88F28688001F4D40EE00128F7D01E
:100FF0006868226A00F48031914204D1616A00F489
:101000007010884201D00120EAE70020E8E70000E4
:1010100000100240000042428004424210040020BE
:101020000070004010B5401EB0F1807F01D3012058
:1010300010BD4FF0E02460610F21601701F086FEC3
:101040000020A06107202061002010BD704770477C
:1010500010B590F83C20012A22D0012280F83C20D3
:10106000CA688C6822F4407222434C6822F4806281
:1010700022430C6822F4006222430C6922F480525D
:1010800022434C6922F400522243C969002322F40E
:1010900080420A4301684A6480F83C30002010BD59
:1010A000022010BD70B590F83C20012A23D0012405
:1010B00080F83C40022280F83D2003685A689D6811
:1010C00022F070060A6832435A600C4B02689A425A
:1010D00005D0B2F1804F02D0094B9A4204D1496841
:1010E00025F080031943916080F83D40002180F88D
:1010F0003C10084670BD022070BD0000002C01406D
:101100000004004010B5040003D094F83D0010B175
:1011100007E0012010BD002084F83C00204600F0CC
:101120001FF8022084F83D00211D206801F0D8FB43
:10113000012084F8460084F83E0084F83F0084F8DB
:10114000400084F8410084F8420084F8430084F8A9
:10115000440084F8450084F83D00002010BD0000E4
:1011600008B5114A01681148914208D1816941F4DA
:1011700000618161806900F40060009008BDB1F1F8
:10118000804FFBD1C16941F00101C161C0690022FA
:1011900000F00100009011461C20FFF70DFCBDE897
:1011A00008401C20FFF7FABB002C01400010024051
:1011B00090F83D10012901D001207047022180F8EC
:1011C0003D100168CA6842F00102CA6000680A491D
:1011D000884205D0B0F1804F02D00849884204D13E
:1011E000816801F00701062903D0016841F001017F
:1011F0000160002070470000002C01400004004006
:1012000070B5044690F83C00012817D0012584F8F9
:101210003C50022084F83D002068826822F077026A
:1012200022F47F4282600868502830D00DDC2028EC
:101230004DD005DC98B310283BD148E0022070BDAA
:10124000302844D0402834D139E0602828D0702894
:1012500006D0B0F5805F2CD0B0F5005F29D10AE050
:10126000CB68D1E90121206801F075FB2068816815
:1012700041F0770109E0CB68D1E90121206801F054
:101280006AFB2068816841F48041816011E0CA688E
:101290004968206801F014FC5021206807E016E03E
:1012A000CA684968206801F01CFC6021206801F0D0
:1012B0005CFB84F83D50002084F83C0070BDCA6897
:1012C0004968206801F0FCFB40212068EFE72268B4
:1012D00001461046EBE72DE9F0410D46040003D02E
:1012E00094F83D0018B108E00120BDE8F08100202D
:1012F00084F83C00204600F041F8022084F83D00CC
:101300002068816844F2070291438160211D2068B2
:1013100001F0E6FA226890689169166A2B68AF6955
:10132000034340F20330814341EA0721A868EF6993
:1013300008434FF6FC418843E96840EA072001432F
:1013400028692F6A000140EA0730084369686D691F
:1013500026F0220646EA051529439360226890612B
:1013600054F8460B0162012004F81F09E07520764D
:10137000E0762077A0750020B7E7000000B585B0C3
:101380000021009101910291039100681149884266
:101390001ED11148C16941F00201C161C16901F06A
:1013A00002010491816941F004018161806969460B
:1013B00000F004000490C02000900848FFF76AF98C
:1013C000002205211D20FFF7F7FA1D20FFF7E6FA9E
:1013D00005B000BD000400400010024000080140BC
:1013E00070B590F83E60044690F83F5090F8423057
:1013F00090F84320022021B104290ED0012E1BD1E8
:1014000014E0012E18D1012B16D184F83E0084F887
:10141000420001220021206820E0012D0CD1012A88
:101420000AD184F83F0084F8430014E0012D03D171
:10143000012B01D1012A01D0012070BD84F83E00AA
:1014400084F83F0084F8420084F843000122002120
:10145000206801F073FA01220421206801F06EFA7D
:101460002068016841F001010160002070BD7047F3
:1014700070B50446006801694FF00005C94389074B
:1014800015D4C168C943890711D4E91E016101203F
:101490002077206880698007204602D0FFF7E7FFA9
:1014A00004E000F0BFF8204600F04EF925772068F0
:1014B0000169C943490717D4C168C943490713D40F
:1014C0006FF004010161022020772068806910F428
:1014D000407F204602D0FFF7CAFF04E000F0A2F8E8
:1014E000204600F031F9257720680169C9430907D2
:1014F00016D4C168C943090712D46FF0080101610D
:10150000042020772068C0698007204602D0FFF7BA
:10151000AEFF04E000F086F8204600F015F92577CC
:1015200020680169C943C90617D4C168C943C906FF
:1015300013D46FF010010161082020772068C06982
:1015400010F4407F204602D0FFF791FF04E000F046
:1015500069F8204600F0F8F8257720680169C9434A
:10156000C90708D1C168C943C90704D1891E0161EF
:10157000204600F06DF920680169C943090609D4C5
:10158000C168C943090605D46FF080010161204696
:10159000FFF75CFD20680169C943490609D4C168A9
:1015A000C943490605D46FF040010161204600F0AF
:1015B0006DF920680169C94389060BD4C168C94324
:1015C000890607D46FF0200101612046BDE8704014
:1015D000FFF73DBD70BD000000B585B00021009152
:1015E00001910291039100680B49884212D10B4886
:1015F000816941F0040181618069694600F004005D
:1016000004904FF4E06000900220019003900448A1
:10161000FFF740F805B000BD002C0140001002406B
:1016200000080140704770B5044690F83C000D4634
:1016300001280AD0012084F83C0042B1042A18D0C5
:10164000082A2AD00C2A4DD139E0022070BD20682A
:1016500001F094F92068816941F0080181612068F6
:10166000816921F004018161206881692A6911433F
:1016700011E0206801F0AAF92068816941F4006155
:1016800081612068816921F48061816120688169BC
:101690002A6941EA0221816124E0206801F0C2F94F
:1016A0002068C16941F00801C1612068C16921F069
:1016B0000401C1612068C1692A69114311E02068F1
:1016C00001F0DCF92068C16941F40061C161206862
:1016D000C16921F48061C1612068C1692A6941EA58
:1016E0000221C161002084F83C0070BD10B50400E7
:1016F00003D094F83D0010B107E0012010BD002098
:1017000084F83C00204600F01EF8022084F83D00DA
:10171000211D206801F0E4F8012084F8460084F8D7
:101720003E0084F83F0084F8400084F8410084F8CB
:10173000420084F8430084F8440084F8450084F8AB
:101740003D00002010BD70477047000010B50446F2
:10175000022249B104290ED0082913D094F841007F
:10176000012816D0012010BD94F83E000128F9D1BF
:1017700084F83E200FE094F83F000128F2D184F86D
:101780003F2008E094F840000128EBD184F8402085
:1017900001E084F841200122206801F0CFF80E49D1
:1017A0002068884203D1426C42F4004242642068BF
:1017B000884205D0B0F1804F02D00849884204D158
:1017C000816801F00701062903D0016841F0010199
:1017D0000160002010BD0000002C0140000400400A
:1017E00030B504460D460068002201F0A7F8174BFB
:1017F00041F2111120688A10984209D1036A0B4204
:1018000006D1036A134203D1436C23F400434364BB
:101810002068036A0B4206D1016A114203D10168B4
:1018200021F00101016001203DB1042D08D0082DF7
:1018300009D084F84100002030BD84F83E00FAE76A
:1018400084F83F00F7E784F84000F4E7002C0140FB
:1018500001680A480068814202D1094A01201070DB
:1018600008480068814208D10068C043C1060648A4
:1018700001D5042100E003210170704738060020E3
:1018800000000020800600201404002070477047EC
:1018900070470000F8B5026804461068D1685369C3
:1018A00010F00F0F4FF0000553D003F0010601F4C4
:1018B000907737435FD0C20705D0CA0503D5226CA5
:1018C00042F001022264420705D5DA0703D0226CF8
:1018D00042F002022264820705D5DA0703D0226CA7
:1018E00042F004022264020707D501F020023243CD
:1018F00003D0226C42F008022264226C002A34D009
:10190000800604D5880602D5204601F01CF920681F
:101910004069216CC0F38010090700D430B3204621
:1019200001F0F9F82068416949061BD5416921F0A9
:1019300040014161A06BA8B158494163A06BFEF71B
:101940001BFE002811D0A06B416B01B0BDE8F04038
:10195000084783060FD58B060DD52046BDE8F84015
:1019600001F0F1B82046FFF793FFF8BD2046FFF7DE
:101970008FFF2564F8BD266B2023012E52D1C606A9
:1019800050D5CE064ED5106850680090506940067C
:101990002AD5A16B086840680004000CEAD0A68D27
:1019A0008642E7D9E0858869202818D0D06820F4DD
:1019B0008070D0602068416921F001014161206898
:1019C000416921F04001416184F83E30256320687F
:1019D000C16821F01001C160A06BFEF7A9FDA08DC8
:1019E000E18D401A81B219E0A08DE18D401A81B2DB
:1019F000E08D0028BED00029BCD0D06820F49070C3
:101A0000D0602068426922F00102426184F83E30D1
:101A100025632068C26822F01002C2602046FFF7EA
:101A200036FFF8BD05062BD50D0629D594F83D00E7
:101A30002128F6D1A068B0F5805F01D12069B0B14E
:101A4000206A411C2162216800784860E08C401EB9
:101A50000004000CE084E4D12068C16821F080011A
:101A6000C1602068C16841F04001C160F8BD206AD2
:101A70000088C0F308005060206A801C2062E5E7FF
:101A80004006F3D54806F1D5D168204621F0400143
:101A9000D16084F83D3000F0D0F8F8BD072B000885
:101AA00070B5040004D094F83D00002510B106E0A4
:101AB000012070BD84F83C50204600F023F824201B
:101AC00084F83D002068C16821F40051C1602046BF
:101AD00001F094F82068016921F4904101612068C7
:101AE000416921F02A0141612068C16841F4005137
:101AF000C1602564202084F83D0084F83E00002069
:101B000070BD000030B585B00024009401940294AB
:101B100003940068184988422BD11848C16941F4E0
:101B20000031C161C16901F400310491816941F062
:101B3000040181618069124D00F0040004900420CA
:101B40000090022001900320039069462846FEF78A
:101B5000A1FD0820CDE90004694628460294FEF75D
:101B600099FD002204212620FEF726FF2620FEF7FD
:101B700015FF05B030BD00000044004000100240D9
:101B800000080140704700002DE9F843044690F832
:101B90003D001F4616460D4620284CD1C5B1BEB1AA
:101BA00094F83C00012846D0012084F83C004FF016
:101BB0000008C4F84080212084F83D00FEF75CFE58
:101BC000A6848146E684A068B0F5805F03D004E077
:101BD0000120BDE8F883206928B12E465FF000059A
:101BE00084F83C800EE00026FAE78021204601F0D0
:101BF00061F8A0B9AEB116F8010B21684860E08C1D
:101C0000401EE084E08C4B464FF000020097002815
:101C1000EBD14FF04001204601F04CF830B10320E9
:101C2000D7E735F8020BC0F30800E6E7202084F878
:101C30003D000020CDE70220CBE77047FEE7002003
:101C4000401CC0B20A28FBD37047000030B51048D2
:101C500085B0816941F0080181618069112400F03B
:101C6000080004904FF40040CDE9000401256946C6
:101C700003950848FEF70EFD0820CDE900046946EB
:101C800003950548FEF706FD00F062F805B030BD8B
:101C90000010024000080140000C01402DE9F04115
:101CA000174FDFF86080054600244FF400462806F1
:101CB00001D5012200E0002208214046FEF7D7FDB1
:101CC000FFF7BDFF012231463846FEF7D0FDFFF792
:101CD000B6FF002231463846FEF7C9FD072C04D175
:101CE000012208214046FEF7C2FD6806050EFFF7F7
:101CF000A6FF641CE4B2082CD9D3BDE8F081000033
:101D000000080140000C014070B50F4C0122082171
:101D10002046FEF7ACFD01220C4ED5032946304685
:101D2000FEF7A5FDFFF78BFF002208212046FEF7F6
:101D30009EFDFFF784FF002229463046FEF797FDFF
:101D4000BDE87040FFF77BBF000C01400008014078
:101D500010B50A4C002208212046FEF788FD01221A
:101D6000D1030748FEF783FDFFF769FF20460122F4
:101D7000BDE810400821FEF77ABD0000000C0140CC
:101D80000008014070B5114C012208212046FEF7E1
:101D90006EFDFFF754FF01220D4ED5032946304654
:101DA000FEF765FDFFF74BFF08212046FEF752FDC9
:101DB00008B1012400E00024002229463046FEF745
:101DC00056FDFFF73CFF204670BD0000000C0140AF
:101DD000000801402DE9F04119480025007800284D
:101DE0002CD1184C4FF4805631462046FEF732FD78
:101DF000E71420B139462046FEF72CFDE8B905204E
:101E0000FEF706FC31462046FEF724FD30B13E4683
:101E100039462046FEF71EFD40B10EE00125314651
:101E20002046FEF717FD0028F9D006E002253146CE
:101E30002046FEF70FFD0028F9D02846BDE8F081C6
:101E40001404002000080140FEB50025214800953B
:101E500001951F4902950160891581600573012470
:101E60000475042606614FF460214560C0E906410F
:101E7000FEF794FA08B1FEF7F3F9CDE9005469468C
:101E800014480295FEF70CFA08B1FEF7E9F90220B2
:101E9000CDE9004069460F48FEF702FA08B1FEF7A7
:101EA000DFF9082000900320019069460948FEF7F9
:101EB000F7F908B1FEF7D4F90920CDE90006694623
:101EC0000448FEF7EDF9002801D0FEF7C9F9FEBD80
:101ED00000240140B40500202DE9F04385B0002422
:101EE00032480094019402940394816941F01001F6
:101EF0008161816901F010010491816941F0200143
:101F00008161816901F020010491816941F004013E
:101F10008161816901F004010491816941F0080146
:101F200081618069DFF8888000F008004EF2780552
:101F30000490012229464046FEF799FC0122DFF871
:101F40007490D70339464846FEF791FC4FF4604041
:101F500000901948CDE9010469461848FEF79AFB3C
:101F60000095022601250396CDE9015469464046B5
:101F7000FEF790FB4FF4C050CDE900046946484697
:101F80000294FEF787FB00970396CDE9015469465A
:101F90004846FEF77FFB002211462820FEF70CFD85
:101FA0002820FEF7FBFC05B0BDE8F08300100240DE
:101FB000000C0140000801400000311000100140F9
:101FC000094810B5074901600421416040F6FF71DE
:101FD0008160FEF757FC002803D0BDE81040FEF7F3
:101FE0003FB910BD00300040E405002010B596B0A8
:101FF00000240F9410941194129413941C21684699
:102000001494FEF798F8202107A8FEF794F83248B8
:10201000304901600321C0E9011440F2DB51C0E9FD
:1020200003148021C0E90541FFF76CF808B1FEF701
:1020300017F94FF480500F900FA92748FFF7E0F8E9
:1020400008B1FEF70DF92448FFF750FB08B1FEF781
:1020500007F9139413A920481494FFF723F808B143
:10206000FEF7FEF86020009040F2EE20CDE901047A
:102070000394049405940022694617480694FFF7D8
:10208000D2FA08B1FEF7ECF8042269461248FFF7CD
:10209000CAFA08B1FEF7E4F8082269460E48FFF7CD
:1020A000C2FA08B1FEF7DCF80794089409944FF4DB
:1020B00000500A94CDE90B4007A907480E94FEF79B
:1020C000C7FF08B1FEF7CCF80348FFF785FA16B052
:1020D00010BD0000002C0140F005002010B586B0B6
:1020E00000241748009401940294039404944FF040
:1020F0008041059401604721C0E9011440F2E731B5
:10210000C0E9031480218161FEF7FCFF08B1FEF7EE
:10211000A7F84FF48050009069460948FFF770F81F
:1021200008B1FEF79DF8049404A905480594FEF74C
:10213000B9FF002801D0FEF793F806B010BD0000EB
:102140003806002010B58CB024216846FDF7F3FF57
:1021500000241648099414490A9401600121C0E939
:10216000011480228261C0E903140320CDE9000438
:102170000420CDE902100F22CDE90610CDE9042498
:10218000089269460948FFF7A6F808B1FEF768F813
:10219000099409A905480A94FEF784FF002801D094
:1021A000FEF75EF80CB010BD000400408006002071
:1021B0000C4810B50A4901604FF4E131416000213B
:1021C00081600C22C160C0E904128161C161FFF726
:1021D00067FC002803D0BDE81040FEF741B810BDF1
:1021E00000440040C8060020FEE7000010B5054C82
:1021F0000120E07001F0F8FB20712178BDE810406B
:1022000000F048BAA805002010B508210F48FFF7D4
:10221000E7FA04210D48FFF7E3FA00210B48FFF726
:10222000DFFA0B4C0122D1032046FEF720FB0122EE
:1022300091032046FEF71BFB012251032046FEF7C7
:1022400016FB04490020C87010BD0000F0050020F6
:10225000000C0140A805002070B5FFF7BBFD174C2E
:10226000174A002520700146012806D002280BD00D
:10227000032814D0042810D118E0607800EB400047
:1022800002EB8000C07805E0607800EB400002EBD4
:1022900080000079607000F089FD257070BD607865
:1022A00000EB400002EB80008078F3E7607800EB01
:1022B000400002EB80004078ECE7000014040020AE
:1022C00028040020FEE7002000F03EB810B50021F1
:1022D00001230CA2084600F03DF9012309A20221C6
:1022E000002000F037F9012306A20421002000F0AD
:1022F00031F901230621BDE8104002A2002000F0C0
:1023000029B90000202000002DE9F0479846174623
:10231000824600260C46DDF8209010E0214650460B
:1023200000F08AF8554606E019F80600761C00F021
:10233000FFFC6D1CEDB2BD42F6D3641CE4B2444513
:10234000ECD3BDE8F087000070B506465FF00004EE
:1023500004F1B000C0B200F0E6FC002000F0E3FCA5
:10236000102000F0E0FC0025304600F0E1FC6D1C80
:10237000EDB2802DF8D3641CE4B2082CE8D370BD14
:1023800010B5FFF763FC6420FEF742F9AE2000F0C1
:10239000CAFC202000F0C7FC102000F0C4FCB020D4
:1023A00000F0C1FCC02000F0BEFC002000F0BBFC2F
:1023B000102000F0B8FC402000F0B5FC812000F0B7
:1023C000B2FCFF2000F0AFFCA02000F0ACFCA62087
:1023D00000F0A9FCA82000F0A6FC3F2000F0A3FC20
:1023E000A42000F0A0FCD32000F09DFC002000F011
:1023F0009AFCD52000F097FCF02000F094FCD92046
:1024000000F091FC222000F08EFCDA2000F08BFC22
:10241000122000F088FCDB2000F085FC202000F07A
:1024200082FC8D2000F07FFC142000F07CFCBDE8D5
:102430001040AF2000F077BC10B50446B031C8B2F0
:1024400000F071FC102040EA141000F06CFC04F065
:102450000F00BDE8104040F0010000F064BC000037
:102460002DE9F041203A00240D468046D6B27F285F
:1024700003D900208D1C8046EDB2102B29460FD0C9
:10248000FFF7DAFF164906EB460001EB4005285D31
:1024900000F04EFC641CE4B2062CF8D3BDE8F081D9
:1024A000FFF7CAFF0F4F00BF04EB0610385C00F0C7
:1024B0003FFC641CE4B2082CF6D36D1CE9B2404624
:1024C000FFF7BAFF5FF0000404EB06103844007A0F
:1024D00000F02EFC641CE4B2082CF5D3DEE700000B
:1024E000723D00089A3F00082DE9F05F0026DDF8F4
:1024F00028901D4692468B46804634464FEA59073F
:1025000023E0281B401EC1B20A2001F0A5FABAFB45
:10251000F0F00A21B0FBF1F201FB120026B9691EAE
:102520008C4201DA38B101263030C2B207FB048098
:10253000C0B24B4604E007FB0480C0B24B462022E9
:102540005946FFF78DFF641CE4B2AC42D9D3BDE815
:10255000F09F00002DE9F047002591468A46044689
:10256000012B22D0DFF8BC80022B24D155E020388B
:10257000C7B27E2C04D90AF10100002400F0FF0A42
:1025800051462046FFF758FF07EB4700002608EBAF
:102590004007B85D00F0CCFB761CF6B2062EF8D3EF
:1025A000A41D6D1CE4B2EDB201E0DFF87C8019F8E7
:1025B00005000028DBD1BDE8F0872038C7B2782CB1
:1025C00004D90AF10100002400F0FF0A5146204618
:1025D000FFF732FF5FF0000606EB071118F8010065
:1025E00000F0A6FB761CF6B2082EF5D30AF1010026
:1025F000C1B22046FFF720FF5FF0000606EB07118F
:1026000001EB0800007A00F093FB761CF6B2082E6E
:10261000F4D308346D1CE4B2EDB219F805000028BB
:10262000CBD1C8E79A3F0008723D00087047704759
:10263000164810B50178002927D0002101701448F0
:102640004EF660230288521C92B202809A4200D356
:10265000018000880A21B0FBF1F201FB12030C4A51
:102660000121121D03B911704FF4C873B0FBF3F4CC
:1026700003FB140303B991704FF47A73B0FBF3F4C6
:1026800003FB1400002800D1517010BD0000002091
:10269000200400202DE9F041464C4FF400456E1017
:1026A0006714002962D007287FD2DFE800F07E752A
:1026B000046B21394C0008213F48FFF791F80421B1
:1026C0003D48FFF743F800213B48FFF789F846E013
:1026D00000213948FFF784F8012229462046FEF7F9
:1026E000C6F8012231462046FEF7C1F8002211E06B
:1026F00008213148FFF774F804212F48FFF770F8DC
:1027000000212D48FFF722F816E031462046FEF75B
:10271000AEF8012239462046BDE8F041FEF7A7B8E1
:1027200008212548FFF712F804212348FFF758F83D
:1027300000212148FFF754F8012229462046FEF7E0
:1027400096F80022E1E708211B48FFF749F8042129
:102750001948FFF745F800211748FEF7F7FF002258
:1027600029462046FEF783F80122CEE707281CD22F
:10277000DFE800F01B070605080412009BE7B7E737
:10278000CEE7E0E708210C48FFF72AF804210A48C1
:10279000FEF7DCFF9CE708E008210748FEF7D6FFBC
:1027A00004210548FFF71CF892E7BDE8F041FFF768
:1027B0002BBD0000000C0140F0050020FEF796B88C
:1027C00038B51148FEF7F4FC104C6FF00100216899
:1027D00008613C212046FEF703FE2068C16841F0F5
:1027E0000101C160FFF7CCFDFFF76DFD0848002136
:1027F0000090082380220846FFF786FDBDE8384098
:1028000004A000F09BBA00003806002080060020DB
:10281000010000205B6D61696E5D696E666F3A5301
:10282000797374656D20696E697469616C697A6128
:1028300074696F6E20737563636565646564A3A1D5
:102840000D0A000030B593B028216846FDF773FCEF
:1028500014210AA8FDF76FFC00250F95092001211E
:1028600010950090119512954FF4803004910691C7
:10287000CDE901050224CDE907404FF4E0100990AD
:102880006846FEF73FFA08B172B6FEE70AA90F20C4
:1028900081E831004FF48060CDE90D0502210AA8DE
:1028A000FEF744F908B172B6FEE74FF4004011900C
:1028B0000F940FA8FEF7C4F8002801D072B6FEE707
:1028C00013B030BD704700000148FEF7D1BD0000D5
:1028D000380600200148FEF7CBBD0000800600202E
:1028E00070B50268134B144C4FF08046984203D0E9
:1028F000B04201D0A04203D122F070054A682A43B9
:10290000984203D0B04201D0A04203D122F44074D7
:10291000CA6822434C6922F08002224302608A681E
:10292000C2620A688262984201D109690163012189
:10293000416170BD002C01400004004010B501F061
:102940001F030121046A99408C430462016A9A4082
:102950001143016210BD10B5846842EA032224F4D9
:102960007F440A432243826010BD826822F07002D5
:102970000A4342F0070181607047000030B5026AE7
:1029800022F001020262026A4368846924F073053E
:102990000C682C4322F002058A682A430A4DA8429B
:1029A0000BD122F00805CA6823F440732A434D690D
:1029B00022F004021D438B692B4343608461496804
:1029C0004163026230BD0000002C014030B5026A54
:1029D00022F010020262026A436884690D6824F4DE
:1029E000E64444EA05248D6822F0200242EA0512FA
:1029F0000B4DA8420ED1CD6822F0800242EA0512AA
:102A00004D6923F4406343EA85038D6922F0400257
:102A100043EA85034360846149688163026230BD93
:102A2000002C014030B5026A22F480720262036A0F
:102A30004268C46923F4007324F073050C682C43C6
:102A40008D6843EA05230C4DA8420ED1CD6823F4CE
:102A5000006343EA05234D6922F4405242EA05121D
:102A60008D6923F4806342EA05124260C4614968BB
:102A7000C163036230BD0000002C014030B5026A22
:102A800022F480520262046A4268C3690D6823F42A
:102A9000E64343EA05238D6824F4005444EA0534F0
:102AA000064DA84204D14D6922F4804242EA8512C3
:102AB0004260C36149680164046230BD002C01407A
:102AC00010B5036A046A24F001040462846924F0E6
:102AD000F00444EA021423F00A020A438461026209
:102AE00010BD10B5036A23F0100303628369046A02
:102AF00023F4704343EA023224F0A00343EA0111B5
:102B00008261016210BD10B5406A0021C185C18497
:102B1000FEF7BEFE10BD0168CA6822F49072CA605A
:102B200001684A6922F001024A61016B012904D15E
:102B30000168CA6822F01002CA60202180F83E10A5
:102B400000210163704708B590F83E10222901D09A
:102B5000022008BD82684FF480539A4201D1016976
:102B600021B1816A9A421BD04AB10AE00268816AA7
:102B70005268C2F308020A80816A891C08E002696F
:102B800072B10268526802F07F020A70816A491CC1
:102B90008162C18D491E0904090CC18503D019E069
:102BA00002685268F1E70168CA6822F02002CA6030
:102BB0000168CA6822F48072CA6001684A6922F01A
:102BC00001024A61202180F83E10016B012903D0E7
:102BD000FEF7D8FF002008BD002101630168CA6824
:102BE00022F01002CA6001680A68D20602D50A689B
:102BF00049680091818DFEF74AFEEBE770B5044607
:102C000000680169E26821F44051114301612169C2
:102C1000A0680843616908432168CA6841F20C63EF
:102C20009A430243CA6020684169A26921F4407155
:102C3000114341611E492068884202D1FEF71CF809
:102C400001E0FEF709F800EBC00101EB001260683B
:102C500064218000B2FBF0F3B3FBF1F36FF01806D0
:102C60007343B2FBF0F5B2FBF0F605EB83053223BC
:102C700003EB0515B5FBF1F5B6FBF1F605F0F00534
:102C800005EB0615B2FBF0F6B2FBF0F0B0FBF1F08D
:102C90006FF01802504306EB800003EB0010B0FB0E
:102CA000F1F0216800F00F002844886070BD00003A
:102CB000003801402DE9F041984617460E4604467B
:102CC000069D1DE0681C1BD02DB1FDF7D5FDA0EBC6
:102CD0000800A84214D92068C16821F4D071C160ED
:102CE0002068416921F001014161202084F83D0004
:102CF00084F83E00002084F83C000320BDE8F08109
:102D00002068006836EA000004D00020B842D9D01C
:102D10000020F3E70120F9E70148FEF7BBBD000002
:102D2000C8060020FEE7024600217A2000F09CBE83
:102D3000024640217A2000F097BE0000014A024975
:102D400000F023B8E12D0008B00500200907090EA6
:102D5000002804DB00F1E02080F80014704700F048
:102D60000F0000F1E02080F8141D704702E008C851
:102D7000121F08C1002AFAD170477047002001E0F5
:102D800001C1121F002AFBD170472DE9F041164600
:102D90000F460446002503E03946B047641C6D1C0D
:102DA00020780028F8D12846BDE8F08110B50A4AFD
:102DB00000EB400002EB8000084C80680129606055
:102DC00007D0022905D0FFF781FA6068BDE81040FE
:102DD0000047FFF778FAF8E72804002014040020E1
:102DE00038B504468DF800000223012269460248E6
:102DF000FEF7CAFE204638BDC806002008B50448C4
:102E000000210090082380220846FFF77DFA08BDC4
:102E10000100002010B5002101230FA20846FFF792
:102E200099FB01230DA200211020FFF793FB012342
:102E30000EA202211020FFF78DFB01230FA2042117
:102E40001020FFF787FB01230621BDE810400EA2EA
:102E50001020FFF77FBB00003E0000005B315D20CB
:102E60004D6F746F72204374726C00005B325D2092
:102E70005370656564204374726C00005B335D20A1
:102E800053797320534554005B345D204465766963
:102E9000636520696E666F0010B501230CA20221E4
:102EA0000020FFF757FB01230AA200211020FFF7A3
:102EB00051FB01230BA202211020FFF74BFB012342
:102EC0000421BDE810400BA21020FFF743BB000017
:102ED0003E00000020204D6F746F72204374726CAE
:102EE000000000005B315D20446972656374696FA6
:102EF0006E0000005B325D204D6F746F7220537462
:102F0000617475730000000010B501230CA202214A
:102F10000020FFF71FFB01230AA200211020FFF76A
:102F200019FB01230AA202211020FFF713FB012342
:102F30000421BDE810400AA21020FFF70BBB0000DF
:102F40003E0000002020446972656374696F6E0062
:102F50005B315D20466F726577617264000000002E
:102F60005B325D20526576657273616C0000000013
:102F700010B50A4C4FF00103E078012807D008A2F1
:102F800002210020FFF7E6FA0120207010BD022187
:102F9000BDE8104008A20020FFF7DCBAA805002019
:102FA0004D6F6469666965642073756363657373E7
:102FB00066756C6C79200000506C656173652073D8
:102FC000746F7020746865206D6F746F72200000DC
:102FD00010B501230CA204210020FFF7BBFA012346
:102FE0000AA200211020FFF7B5FA01230AA202214C
:102FF0001020FFF7AFFA01230421BDE810400AA218
:103000001020FFF7A7BA00003E000000202044690E
:1030100072656374696F6E005B315D20466F726527
:1030200077617264000000005B325D205265766556
:103030007273616C0000000010B50A4C4FF0010380
:10304000E078012807D008A202210020FFF782FAC9
:103050000020207010BD0221BDE8104008A2002011
:10306000FFF778BAA80500204D6F6469666965644A
:10307000207375636365737366756C6C79200000EB
:10308000506C656173652073746F7020746865207F
:103090006D6F746F7220000010B501230CA2042123
:1030A0000020FFF757FA01230AA200211020FFF7A2
:1030B00051FA01230BA202211020FFF74BFA012342
:1030C0000421BDE810400BA21020FFF743BA000016
:1030D0003E00000020204D6F746F72204374726CAC
:1030E000000000005B315D20446972656374696FA4
:1030F0006E0000005B325D204D6F746F7220537460
:10310000617475730000000010B501230CA2022148
:103110000020FFF71FFA01230AA200211020FFF769
:1031200019FA01230BA202211020FFF713FA012341
:103130000421BDE810400BA21020FFF70BBA0000DD
:103140003E00000020204D6F746F72204374726C3B
:10315000000000005B315D204D6F746F722053746E
:10316000617274005B325D204D6F746F7220537416
:103170006F70000010B501230DA202210020FFF79F
:10318000E9F901230BA200211020FFF7E3F9012345
:103190000CA202211020FFF7DDF901230DA204216A
:1031A0001020FFF7D7F9BDE81040FFF71FB8000067
:1031B0003E00000020204D6F746F72204374726CCB
:1031C000000000005B315D204D6F746F72205374FE
:1031D000617274005B325D204D6F746F72205374A6
:1031E0006F70000010B501230CA204210020FFF72E
:1031F000B1F901230AA200211020FFF7ABF9012346
:103200000BA202211020FFF7A5F901230421BDE83C
:1032100010400BA21020FFF79DB900003E000000F7
:1032200020204D6F746F72204374726C0000000098
:103230005B315D204D6F746F722053746172740046
:103240005B325D204D6F746F722053746F7000009D
:1032500010B501230DA204210020FFF77BF9012303
:103260000BA200211020FFF775F901230CA2022107
:103270001020FFF76FF901230DA204211020FFF7A2
:1032800069F9BDE81040FEF7BFBF00003E00000036
:1032900020204D6F746F72204374726C0000000028
:1032A0005B315D204D6F746F7220537461727400D6
:1032B0005B325D204D6F746F722053746F7000002D
:1032C00010B501230FA202210020FFF743F90123CB
:1032D0000DA200211020FFF73DF901230EA20221CB
:1032E0001020FFF737F901230FA204211020FFF768
:1032F00031F901230621BDE810400EA21020FFF78E
:1033000029B900003E0000005B315D204D6F746FF5
:1033100072204374726C00005B325D2053706565EF
:1033200064204374726C00005B335D20537973201A
:10333000534554005B345D204465766963652069BC
:103340006E666F0038B50B4C20780A2801D80A2029
:1033500000E0401E2070022307A200211020FFF78A
:10336000F9F8102000900323227804212D20FFF784
:10337000BBF838BD1C040020202020537065656414
:103380000000000008B5022307A200211020FFF76B
:10339000E1F81020009007480323042102782D2033
:1033A000FFF7A2F808BD0000202020537065656477
:1033B000000000001C04002038B50B4C2078642865
:1033C00001D3642000E0401C2070022307A20021EA
:1033D0001020FFF7BFF8102000900323227804216B
:1033E0002D20FFF781F838BD1C0400202020205339
:1033F000706565640000000010B501230FA2042170
:103400000020FFF7A7F801230DA200211020FFF7ED
:10341000A1F801230EA202211020FFF79BF801233F
:103420000FA204211020FFF795F801230621BDE823
:1034300010400EA21020FFF78DB800003E000000E3
:103440005B315D204D6F746F72204374726C0000AD
:103450005B325D205370656564204374726C0000BC
:103460005B335D2053797320534554005B345D20FA
:1034700044657669636520696E666F0010B5012347
:103480000FA202210020FFF765F801230DA2002101
:103490001020FFF75FF801230DA202211020FFF793
:1034A00059F801230FA204211020FFF753F801233C
:1034B0000621BDE810400EA21020FFF74BB8000017
:1034C0003E00000020205379732053455400000033
:1034D0005B315D20506172616D657465722053458A
:1034E000540000005B325D2053746F7261676500A9
:1034F0005B335D20526573746F72000010B5012359
:103500000CA202210020FFF725F801230AA20021C6
:103510001020FFF71FF801230BA202211020FFF754
:1035200019F801230421BDE810400BA21020FFF779
:1035300011B800003E0000002020506172616D65EE
:1035400074657220534554005B315D20496E697487
:10355000616C2044757479005B325D20446566754A
:103560006C7420446972000038B50B4C20780A282E
:1035700001D80A2000E0401E2070022307A200218B
:103580001020FEF7E7FF102000900323227804218B
:103590002D20FEF7A9FF38BD1C0400202020205359
:1035A000706565640000000008B5022307A20021D1
:1035B0001020FEF7CFFF10200090074803230421BE
:1035C00002782D20FEF790FF08BD00002020205338
:1035D00070656564000000001C04002038B50B4CC9
:1035E0002078642801D3642000E0401C207002236E
:1035F00007A200211020FEF7ADFF1020009003234A
:10360000227804212D20FEF76FFF38BD1C04002016
:1036100020202053706565640000000010B5012370
:103620000CA204210020FEF795FF01230AA200212D
:103630001020FEF78FFF01230BA202211020FEF7BE
:1036400089FF01230421BDE810400BA21020FEF7E2
:1036500081BF00003E0000002020506172616D6556
:1036600074657220534554005B315D20496E697466
:10367000616C2044757479005B325D204465667529
:103680006C7420446972000010B501230CA2022161
:103690000020FEF75FFF01230AA200211020FEF7A1
:1036A00059FF01230CA202211020FEF753FF012332
:1036B0000421BDE810400BA21020FEF74BBF000014
:1036C0003E00000020446566756C74204469726594
:1036D0006374696F6E0000005B315D20466F727726
:1036E000617264005B325D20526576657273616C55
:1036F0000000000010B501230CA204210020FEF7F9
:1037000029FF01230AA200211020FEF723FF012335
:103710000CA202211020FEF71DFF01230421BDE8A9
:1037200010400BA21020FEF715BF00003E00000065
:1037300020446566756C7420446972656374696FB2
:103740006E0000005B315D20466F7277617264002D
:103750005B325D20526576657273616C000000001B
:1037600010B501230FA204210020FEF7F3FE012370
:103770000DA200211020FEF7EDFE01230DA2022173
:103780001020FEF7E7FE01230FA204211020FEF710
:10379000E1FE01230621BDE810400EA21020FEF735
:1037A000D9BE00003E00000020205379732053450D
:1037B000540000005B315D20506172616D6574657D
:1037C00072205345540000005B325D2053746F72C9
:1037D000616765005B335D20526573746F72000032
:1037E00010B501230CA202210020FEF7B3FE012335
:1037F0000AA200211020FEF7ADFE01230AA2022139
:103800001020FEF7A7FE01230421BDE8104008A206
:103810001020FEF79FBE00003E0000002020205335
:10382000746F7261676500005B315D20594553001C
:103830005B325D204E4F000010B501230CA2042125
:103840000020FEF787FE01230AA200211020FEF7C8
:1038500081FE01230AA202211020FEF77BFE012334
:103860000421BDE8104008A21020FEF773BE00003E
:103870003E00000020202053746F726167650000D5
:103880005B315D20594553005B325D204E4F000097
:1038900010B5012309A202210020FEF75BFE0123DF
:1038A00007A200211020FEF755FE01230221BDE8EA
:1038B000104006A21020FEF74DBE00003E000000A2
:1038C0002020537973205345540000005B315D2064
:1038D0005265626F6F740000FDF7A0B810B5012348
:1038E0000FA206210020FEF735FE01230DA20021C4
:1038F0001020FEF72FFE01230EA202211020FEF75A
:1039000029FE01230FA204211020FEF723FE01232C
:103910000621BDE810400EA21020FEF71BBE0000DD
:103920003E0000005B315D204D6F746F7220437468
:10393000726C00005B325D205370656564204374D7
:10394000726C00005B335D20537973205345540043
:103950005B345D2044657669636520696E666F003F
:1039600010B501230FA200211020FEF7F3FD012363
:1039700010A202211020FEF7EDFD012311A2042167
:103980001020FEF7E7FD012312A206211020FEF70A
:10399000E1FD01230621BDE8104011A24220FEF7FF
:1039A000D9BD000020202044657669636520496EFA
:1039B000666F0000417574686F723A5A686F75518E
:1039C00069000000444154453A323032332F332FDE
:1039D0003237000056657273696F6E3A000000005E
:1039E0004130332E3032000070B50C4D4FF4005191
:1039F0002846FCF72FFF04464FF480412846FCF789
:103A000029FF06464FF400412846FCF723FF8000BB
:103A100000EB46002044C0B270BD00000010014021
:103A2000FCF76CFFFEF70EFFFEF756FAFEF78AFB77
:103A3000FEF70AFAFEF7DAFAFEF7BAFBFEF7C0FA6B
:103A4000FEF74CFBFEF7BCFEFEF7F2FD0148FCF76B
:103A500009FCF9E7240400200246012000E050435D
:103A6000491EC9B2FBD2704770B515460E460446D2
:103A7000FEF74AF92046FEF711F9FEF783F93046C2
:103A8000FEF70CF9FEF77EF92846FEF707F9FEF778
:103A900079F9BDE87040FEF75BB900000000000056
:103AA00000000102030406070809000000000102EB
:103AB0000304000022322AA6A2622111098101001A
:103AC0000000004222130B42827E02020A122346A9
:103AD00000002030AC63300088C8A8998E88A8C840
:103AE000880022672212128040300F00003F4040C1
:103AF0007100080889EA1888000404FC040404FC26
:103B00000000020100FF0186402018074080403F6E
:103B100000001010F01F10F00040E05847405060C7
:103B2000C0004022150816210000FE42424242FE1B
:103B30000000008060F807000000FF40201008042B
:103B40000000010000FF000402013F4040404040EF
:103B500078000000F010101010FF10101010F0008E
:103B6000000000000F04040404FF040404040F0018
:103B700000001060028C0000FE9292929292FE0071
:103B8000000004047E01407E42427E427E42427E2C
:103B900040001060028C00FE929292929292FE007F
:103BA000000004047E014448507F40407F50484458
:103BB00040000000FC242424FC252624FC2424248A
:103BC000040040308F80844C55252525554C80803D
:103BD00080000000800000E0020418000000408027
:103BE0000000100C0300003F4040404040780001BE
:103BF0000E000014A4442434AD6624940444A41498
:103C0000000008090808090909FD09090B08080945
:103C100008000000F80808F80C0B08F80808F8007D
:103C2000000040407F40407F4040407F40407F4018
:103C300040000824236AAA2AAA6A2A2A2AEA020237
:103C400000001011151515FF15151511100F304036
:103C5000F8000484E45C44C42010E82724E4342CF5
:103C6000E00002017F10103F80601F09093F498971
:103C70007F00100C4444444445C644444444441426
:103C80000C008040201E2040407F44444444444077
:103C900040000202FE929292FE0206FC040404FC22
:103CA000000008180F080804FF0484402718274064
:103CB00080001060020CC000E22C203F2028E600AB
:103CC000000004047C030000FF09090949897F0002
:103CD0000000060909E6F80C040202020202041EB2
:103CE0000000000000071F302040404040402010EE
:103CF0000000807000FF1008FE424242FA42424239
:103D0000FE00806018070810FF50484641424C40B2
:103D1000FF00100C055555D5057F05555555051463
:103D20000C001010108AA96B352525ABE90810107E
:103D30001000000202F2121212F2020202FE02024D
:103D400002000000000F0404040F0040807F000008
:103D50000000807000FF10289827C43C907F9012CC
:103D60001400806018070898640328C621C0112633
:103D7000C8000000000000000000002F000000004C
:103D80000700070000147F147F1400242A7F2A12E2
:103D900000626408132300364955225000000503D1
:103DA000000000001C224100000041221C00001401
:103DB000083E08140008083E0808000000A0600043
:103DC00000080808080800006060000000201008D3
:103DD0000402003E5149453E0000427F400000423F
:103DE00061514946002141454B31001814127F10A2
:103DF000002745454539003C4A49493000017109D1
:103E0000050300364949493600064949291E000084
:103E1000363600000000563600000008142241002B
:103E2000001414141414000041221408000201515B
:103E3000090600324959513E007C1211127C007F64
:103E400049494936003E41414122007F4141221CFF
:103E5000007F49494941007F09090901003E414964
:103E6000497A007F0808087F0000417F4100002058
:103E700040413F01007F08142241007F4040404004
:103E8000007F020C027F007F0408107F003E41414A
:103E9000413E007F09090906003E4151215E007F35
:103EA000091929460046494949310001017F0101AC
:103EB000003F4040403F001F2040201F003F40384F
:103EC000403F00631408146300070870080700618E
:103ED0005149454300007F41410000552A552A556C
:103EE000000041417F000004020102040040404004
:103EF0004040000001020400002054545478007F28
:103F00004844443800384444442000384444487FFE
:103F100000385454541800087E0901020018A4A463
:103F2000A47C007F080404780000447D4000004029
:103F300080847D00007F102844000000417F400005
:103F4000007C04180478007C080404780038444499
:103F5000443800FC242424180018242418FC007C75
:103F60000804040800485454542000043F444020EE
:103F7000003C4040207C001C2040201C003C403085
:103F8000403C004428102844001CA0A0A07C004411
:103F900064544C4414141414141400000000000061
:103FA00000000000000000000000000000F8000019
:103FB0000000000000333000000000100C06100C60
:103FC0000600000000000000000040C07840C078FB
:103FD0004000043F04043F040400007088FC0830E3
:103FE0000000001820FF211E0000F008F000E0187B
:103FF000000000211C031E211E0000F00888700034
:1040000000001E2123241927211010160E00000085
:1040100000000000000000000000000000E01804A4
:104020000200000000071820400000020418E00011
:1040300000000040201807000000404080F0804051
:1040400040000202010F01020200000000F0000027
:1040500000000101011F010101000000000000003B
:10406000000080B0700000000000000000000000B0
:104070000000000101010101010100000000000039
:1040800000000030300000000000000000008060F0
:104090001804006018060100000000E01008081075
:1040A000E000000F102020100F00001010F800009A
:1040B00000000020203F2020000000700808088831
:1040C0007000003028242221300000300888884801
:1040D00030000018202020110E000000C02010F831
:1040E000000000070424243F240000F80888880802
:1040F00008000019212020110E0000E01088881807
:104100000000000F112020110E0000380808C838E8
:1041100008000000003F00000000007088080888C8
:104120007000001C222121221C0000E01008081051
:10413000E0000000312222110F00000000C0C0008A
:10414000000000000030300000000000008000008F
:10415000000000008060000000000000804020108F
:104160000800000102040810200040404040404088
:1041700040000404040404040400000810204080EB
:104180000000002010080402010000704808080820
:10419000F0000000003036010000C030C828E810F0
:1041A000E0000718272423140B000000C038E000AB
:1041B0000000203C23020227382008F888888870F5
:1041C0000000203F202020110E00C0300808080801
:1041D0003800071820202010080008F808080810E8
:1041E000E000203F202020100F0008F88888E80811
:1041F0001000203F20202320180008F88888E808B5
:104200001000203F200003000000C03008080838DC
:10421000000007182020221E020008F808000008ED
:10422000F808203F210101213F20000808F8080874
:1042300000000020203F2020000000000808F808AF
:104240000800C08080807F00000008F888C028181F
:104250000800203F20012638200008F80800000050
:104260000000203F20202020300008F8F800F8F857
:104270000800203F003F003F200008F830C0000841
:10428000F808203F200007183F00E0100808081039
:10429000E0000F10202020100F0008F80808080880
:1042A000F000203F210101010000E0100808081083
:1042B000E0000F18242438504F0008F888888888B8
:1042C0007000203F2000030C302000708808080890
:1042D00038000038202121221C00180808F808089E
:1042E00018000000203F2000000008F80800000827
:1042F000F808001F202020201F000878880000C830
:104300003808000007380E010000F80800F800081F
:10431000F800033C0700073C030008186880806829
:10432000180820302C03032C30200838C800C83867
:1043300008000000203F2000000010080808C838CE
:1043400008002038262120201800000000FE02026C
:1043500002000000007F40404000000C30C0000020
:104360000000000000010638C00000020202FE004A
:104370000000004040407F000000000004020202F4
:104380000400000000000000000000000000000029
:104390000000808080808080808000020204000015
:1043A000000000000000000000000000808080800D
:1043B00000000019242222223F2008F800808000FB
:1043C0000000003F112020110E00000000808080BE
:1043D0000000000E112020201100000000808088C5
:1043E000F800000E112020103F2000008080808007
:1043F0000000001F222222221300008080F0888803
:1044000088180020203F202000000000808080804D
:104410008000006B94949493600008F80080808082
:104420000000203F210000203F20008098980000DD
:1044300000000020203F202000000000008098980D
:10444000000000C08080807F000008F800008080AD
:104450008000203F24022D302000000808F80000D2
:1044600000000020203F202000008080808080808D
:104470008000203F20003F20003F8080008080801F
:104480000000203F210000203F200000808080802D
:104490000000001F202020201F008080008080005E
:1044A000000080FFA12020110E000000008080800D
:1044B0008000000E112020A0FF808080800080807E
:1044C000800020203F2120000100000080808080AB
:1044D00080000033242424241900008080E08080A0
:1044E00000000000001F20200000808000000080ED
:1044F0008000001F202020103F208080800000804E
:10450000808000010E30080601008080008000805D
:1045100080800F300C030C300F0000808000808002
:1045200080000020312E0E3120008080800000802D
:10453000808080818E7018060100008080808080DD
:1045400080000021302C2221300000000000807CFF
:10455000020200000000003F404000000000FF0099
:10456000000000000000FF0000000002027C80004C
:1045700000000040403F0000000000060101020270
:10458000040400000000000000000000AC4500082A
:1045900000000020B4050000700100086048000819
:1045A000B40500205C0500007C2D0008110E3AF8CF
:1045B000FCFEFEFF010A341F0108093B3F7FFFFF9D
:1045C000FEFEFCF87C2901011F180A6060E0F8FE7D
:1045D000FE383E3E03190567FEFEF8F06060794341
:1045E00022013A30014C10014352895F191C1AF024
:1045F00001280EF1F1E103030FFFFF3F0703C1F1B3
:10460000111901092380BBEDED25290DDB6D6D80AE
:104610004DE0C0C0C6011BC0E0565DC0C0C0C701B0
:10462000990D880BC3E0F0F8FFFFFEF0E0C11D49D3
:104630005B5A800101152809818183071F3F073FCD
:104640000339051C070701D4B9802BFF7F01890FAF
:104650009917091015E90139481A816714EFFFFE0F
:104660001009F8FCFC6E667E3C182008BCBCBCFC43
:10467000ECECEC14FDFDFD100978FCFCCC8CFCFC92
:10468000FC19041B0C1C08E98021191A12F81B01E3
:10469000070B3F011F9FCFC7E3172C0C0C0C0728FB
:1046A00009CF070FFFFF3F0F8F052D076767670FC4
:1046B000A93C6A010131690A7912390519494D0F7E
:1046C0000F07070D3928C980280AC0C0C3C3E3F10A
:1046D000F0F8FE0B9AC017590C1EFCF0E1F0FC0834
:1046E0002808F8F0E0E3E3F3F60B9980280B7F7FCE
:1046F0006D6D6F7F30DCFCE0DB22781763737B6FBE
:104700006763157F04047C100C3C7C666E7C103C57
:104710007C60607C2F3E7F6361737E318980AD1F3A
:104720003F7F7F4F092F010A34F0013009F8FCFE6A
:10473000FF7F7F3F1F320182109324F4E20A2A0197
:104740002813FD2D1508010402320513152E150836
:10475000020103320813C1321508030204320C139C
:10476000F9331508040301320D13DD383708050647
:1047700006010E1A99302D060505016C1399303784
:104780000807070902071A45305A080C1A850C5AFF
:10479000090C1AB90C360A0C0B0312137D343708B6
:1047A0000B0A0C03141361372E080C0C0C03BC1AF3
:1047B00091602D0D0D0D046C13613937080E0F0F2C
:1047C000051D13092F37080F0E0E051E1AD10C2ECA
:1047D000101111061B1812313708111010061C1A7F
:1047E000E50C2E1213130A17D81960361312120A89
:1047F00019131D362E081415150B6C1AE16C36159D
:1048000014140B151A396C2D16161712301369353E
:104810005B08170C1AA90C5A180C1ADD0C2D191A62
:104820001A13481A8948361A1919131A1AF50C1A44
:104830001B8429FC1A75781A1C84321113513237E3
:10484000081D1D1D05051A71A83C1E1E1E0C1339DE
:10485000302B081F01311AD9781201298E6100000E
:04000005080000ED02
:00000001FF
